:100000000C9412040C9459040C9459040C94590443
:100010000C9459040C9459040C9459040C945904EC
:100020000C9459040C9459040C944D280C940928F0
:100030000C944A290C9459040C9459040C945904B6
:100040000C9459040C9459040C9459040C945904BC
:100050000C9459040C9426290C9459040C945904BA
:100060000C9459040C9459040C9459040C9459049C
:100070000C9459040C9459040C9459040C9459048C
:100080000C9459040C9459040C9459040C9459047C
:100090000C9459040C9459040C9459040C9459046C
:1000A0000C9459040C9459040C9459040501090248
:1000B000A10185020901A100050919012905150001
:1000C00025019505750181029501750381010501E1
:1000D000093009311581257F950275088106093897
:1000E0001581257F950175088106050C0A380215D2
:1000F00081257F950175088106C0C005010980A191
:1001000001850319012AB700150126B7009501756D
:10011000108100C0050C0901A101850419012AA064
:1001200002150126A002950175108100C005010984
:1001300006A1018506050719E029E71500250195A7
:1001400008750181020507190029EF1500250195A1
:10015000F0750181020508190129059505750191C0
:1001600002950175039101C00660FF0961A10109B3
:1001700062150026FF0095207508810209631500AD
:1001800026FF00952075089102C005010906A1010E
:10019000050719E029E71500250195087501810279
:1001A0009501750881010507190029FF150026FF33
:1001B0000095067508810005081901290595057542
:1001C000019102950175039101C00000000000003B
:1001D000000000000000000000000000000000001F
:1001E00000000000000000000000000000007E0F82
:1001F00000D4FFFFFFC700000078000000000000EF
:1002000000002A2B28000000000000000000000071
:10021000000000000029000000002C1E34202122D4
:1002200024342627252E362D3738271E1F2021223D
:10023000232425263333362E37381F0405060708B6
:10024000090A0B0C0D0E0F101112131415161718A6
:10025000191A1B1C1D2F3130232D350405060708E4
:10026000090A0B0C0D0E0F10111213141516171886
:10027000191A1B1C1D2F3130354CFD377A585A0086
:100280000004E6D6B4460200210116000000742FD7
:10029000E5A3E0062101865D003D8889C65436C38A
:1002A000174FE4E0423F2B3CF75A1AEBA7A9B032B4
:1002B000B75A46BA2CE081E4B50031C93A03AB0E17
:1002C0006AE8BCABE57031437361BC7BDB7F2D6BAF
:1002D0006DAA73CC431600D0138443EC3AAFFABF37
:1002E00051C000C91D31A617B7343F4032D2A50E08
:1002F000003139DE34DAC8B8FFC19A2E31EFDD3271
:100300004900B3DA6E111BF2EC19960BF380F887F3
:10031000FDE53CFAEBEFAF16584CBB6EE7D518C2C3
:100320004CC2B7229AB9557C78014F8503F9A9C709
:10033000746C8227B1B989F413490236EDE76D1365
:10034000FEA02F3ECD74F84B1084EC434C079CEE7E
:10035000D701D7E32B194DDD3F87A1C6A4F0CA8290
:10036000C3C253D3A99BEAED12EE0A814102C368CE
:10037000AA7D12B3A534B41FE66D58BB73C0340414
:100380000D27CDC91303768443697DAC82EDD0D7A8
:100390002D62DF1729A3852F5C07BA5BC34DA5FB30
:1003A000B2AB209BF79292719F5AF5B1F54B5BB0BF
:1003B000F1DB9983A878172C076EA64134DFD1882A
:1003C00084CA28C7469294C1089BA422186CB230F4
:1003D000C75281562F618EDE887D01FFCFEF94805A
:1003E00087AF7977BBBF92FFE2BF20B7139E21F2A0
:1003F000E697C24A98E48E257951C07B7EBEC4BC84
:10040000AA34F28CEB95BB793489D030FFB17033CC
:10041000742FC15571CDDEDD39D2B08EA3B8C700BF
:100420000000D8522F87F0D79D420001A203A20CF2
:1004300000000236593EB1C467FB02000000000410
:10044000595A29001E001F002000210022002F0001
:100450004B004E003000230024002500260027001A
:100460002A002B0014001A000800150017002D00A8
:10047000290029002E001C0018000C001200130097
:100480003100390004001600070009000A00360098
:1004900049004A0037000B000D000E000F0033002A
:1004A0002800E1001D001B000600190005002C00BB
:1004B0002A004C002C0011001000360037005200BA
:1004C000E500E000E300E200A900AA004600000009
:1004D00000000000000029003400380050005100E6
:1004E0004F0029003A003B003C003D003E00440024
:1004F000A900AA0045003F0040004100420043001F
:100500002A002B0014001A000800150017002D0007
:100510004B004E0030001C0018000C0012001300AD
:100520003100390004001600070009000A003600F7
:100530002900290037000B000D000E000F003300CA
:100540002800E1001D001B000600190005002A001C
:100550002C002C004C001100100036003700520017
:10056000E500E000E300E200A900AA004600000068
:100570000000000000002900340038005000510045
:100580004F0029001E001F002000210022002F0024
:100590004B004E00300023002400250026002700D9
:1005A0002A002B0014001A000800150017002D0067
:1005B0002900290030001C0018000C001200130054
:1005C0003100390004001600070009000A00360057
:1005D00049004A0037000B000D000E000F003300E9
:1005E0002800E1001D001B000600190005002A007C
:1005F0002C002C004C001100100036003700520077
:10060000E500E000E300E200A900AA0046000000C7
:1006100000000000000029003400380050005100A4
:100620004F0029001E001F002000210022002F0083
:100630004B004E0030002300240025002600270038
:100640002A002B0014001A000800150017002D00C6
:100650002900290030001C0018000C0012001300B3
:100660003100390004001600070009000A003600B6
:1006700049004A0037000B000D000E000F00330048
:100680002800E1001D001B000600190005002A00DB
:100690002C002C004C0011001000360037005200D6
:1006A000E500E000E300E200A900AA004600000027
:1006B0000000000000002900340038005000510004
:1006C0004F000100010076030000020002007203E7
:1006D00000000300010077030000040002005C0337
:1006E0000A070500010078030000060002005E030F
:1006F00000000700020074030000080001007903F5
:100700000000090002006003E5060A00020062031F
:10071000E5060B0002006403E5060C000200660318
:10072000E5060D0002006803E5060E0002006A03FC
:10073000E5060F0002006C03E506100002006E03E0
:10074000E506110002007003E506120002007A03BC
:100750000000130002007C03000009025B0003019B
:1007600000A0FA09040000010301010009211101A0
:1007700000012240000705810308000A0904010066
:1007800002030000000921110100012222000705D7
:100790008203200001070503032000010904020071
:1007A000010300000009211101000122BC0007051E
:1007B000840320000A1201000200000008EEFE651A
:1007C000600100010203011C037600690061006CF6
:1007D000003A0066003600340063003200620033E5
:1007E000006300000010034900460020004500524D
:1007F0000047004F000000260353004B004E0058F6
:1008000000200049004E00460049004E00490054B7
:100810000049002000540045004300480000000447
:100820000309040011241FBECFEFDAE0DEBFCDBF05
:1008300004B603FE27C08091740490917504A091C2
:100840007604B09177048730904BA740B04BD1F439
:10085000109274041092750410927604109277042A
:1008600014BE84B7877F84BF0FB6F894A895809193
:100870006000886180936000109260000FBEE0E02D
:10088000F8E3099511E0A0E0B1E0E6E8F0E602C087
:1008900005900D92A636B107D9F724E0A6E6B1E09F
:1008A00001C01D92A437B207E1F70E9471290C9490
:1008B0000F300C940000E8EDF0E080818E7F8083A3
:1008C0001092E2001092DA001092E100A0EEB0E087
:1008D0008C9181608C9380818F77808319BCA7ED88
:1008E000B0E08C918E7F8C9380818F7E808310927C
:1008F000430408952091E4003091E50095E6A901B4
:100900002091EC00822F817020FF06C08091E800CA
:1009100080FF06C080E008952091E80022FD1AC003
:1009200080916804882389F0853089F08091EB00FC
:1009300085FD0FC02091E4003091E5004217530778
:10094000F9F29150E1F684E0089582E0089583E0A1
:10095000089581E00895EF92FF920F931F93CF9334
:100960007C018B010E947A04C82F811117C08091ED
:10097000E80085FD0BC08091E8008E778093E80049
:100980000E947A04882399F3C82F08C0F701819147
:100990007F018093F1000150110949F78C2FCF910D
:1009A0001F910F91FF90EF90089580916A0487FF47
:1009B00013C08091E80082FF06C08091E8008B7729
:1009C0008093E80004C0809168048111F2CF0895FB
:1009D000809168048823D9F38091E80080FFF8CFE4
:1009E0008091E8008E77ECCF982F9093E900242F28
:1009F000762F50E0891731F07091EC002091ED00D6
:100A00005091F00021FD07C09F5F973071F78093F0
:100A1000E90081E008953091EB003E7F3093EB00D8
:100A20003091ED003D7F3093ED003091EB0031606F
:100A30003093EB007093EC002093ED005093F000A6
:100A40002091EE0027FDE0CF80E00895CF92DF9265
:100A5000EF92FF920F931F93CF93DF93C8EDD0E0F7
:100A600088818F7E8883E7EDF0E0808181608083DC
:100A700084E082BF81E08093430488818E7F8883F5
:100A800002EE10E0F80110821092DA0081EEC82E1A
:100A9000D12CF601108288818F77888388818068C5
:100AA000888388818F7D888319BC10926804109296
:100AB0006904109267041092660490EEE92EF12CFE
:100AC000F70180818B7F808388818160888342E009
:100AD00060E080E00E94F404F60180818E7F8083D4
:100AE000F801808181608083808188608083F70144
:100AF00080818E7F8083888180618883DF91CF9120
:100B00001F910F91FF90EF90DF90CF900895FC011F
:100B1000809170049091710486179707A0F0611579
:100B2000710529F49091E8009E779093E80090E099
:100B30006115710551F4911108C08091E80082FFA0
:100B400034C080E00895BC01F2CF8091680488230E
:100B5000C1F18530C1F18091E80083FD30C0809102
:100B6000E80082FDEACF8091E80080FFE1CF80912C
:100B7000F3002091F200382F6115710519F028302B
:100B8000310558F091E02830310509F090E02091CE
:100B9000E8002E772093E800CBCF81918093F1007D
:100BA000615071092F5F3F4FE7CF80916804882320
:100BB00041F0853041F08091E80083FFBECF81E0B5
:100BC000089582E0089583E0089508958091450492
:100BD00008959C014FB7F89480913A0490913B049A
:100BE000A0913C04B0913D044FBF821B930B08952C
:100BF0002FB7F89480913A0490913B04A0913C0463
:100C0000B0913D042FBF089520911C012223C9F00B
:100C100020913E0427FF15C0E62FE695E695E69560
:100C2000EE31D8F4E80FF92FF11D677021E030E0C4
:100C300001C0220F6A95EAF720958281282322833A
:100C40000895FC01329608962191621303C0DF01DA
:100C500011971C92E817F907B9F7089520911C0124
:100C60002223C1F020913E0427FF14C0E62FE69511
:100C7000E695E695EE31F8F4E80FF92FF11D67706F
:100C800021E030E001C0220F6A95EAF78281822BD1
:100C900082830895FC0132962FEF30E04191641772
:100CA00051F02F3F19F4411101C0232F3F5F36301F
:100CB000A9F72F3F09F40895820F911D27FD9A95FA
:100CC000FC0162830895209137043091380428177D
:100CD000390771F09093380480933704E09135041C
:100CE000F0913604309721F00084F185E02D0994CD
:100CF000089520913304309134042817390771F096
:100D00009093340480933304E0913504F0913604D9
:100D1000309721F00680F781E02D09940895E09145
:100D20003504F0913604309721F00190F081E02DE8
:100D3000099480E00895452B39F0682381E06F3FE6
:100D400009F080E08170089581E0FCCFDC016091C2
:100D5000580380915903962F891301C00895292FB4
:100D600030E0F901EE0FFF1FE05BFC4F4081518145
:100D70004A175B07A1F487E08A9FA0018B9F500D63
:100D80001124485E5C4F81E0FA0184839613E6CF1C
:100D90002F5F3F4F237033272093580308952F5F11
:100DA0003F4F922F9370D8CF1092B5021092B40299
:100DB000E8E1F3E08581811102C014821682379642
:100DC00083E0E035F807B1F70895ECE5F3E08481BE
:100DD00095812AE030E0B9010E94672F60931701E6
:100DE0008681809316018285809315018485809386
:100DF000140186859785B9010E94672F60931301BE
:100E00008089809312018289809311018489809363
:100E10001001089580915C0390915D0390931901F6
:100E20008093180108950E94F8059C019091250275
:100E300080912602982B21F03093220220932102E8
:100E40009091270280912802982B21F03093200264
:100E500020931F02E0913504F0913604309749F059
:100E600082E0809323020480F581E02D83E292E00A
:100E70000994089590912502803F59F480912602AB
:100E800087FF0DC01092260291110BC010921D0217
:100E900008C0813F81F48091260218169CF39923A3
:100EA00081F08091270290912802892B09F064C07B
:100EB00010921C020895823F49F497FFF0CF1092E0
:100EC0002502809126028111ECCFE0CF833F19F4F7
:100ED0001916ACF3E4CF20912702893F29F41216AA
:100EE000F4F610922702DBCF8A3F19F427FFD7CF01
:100EF000F8CF209128028B3F29F427FFD0CF109202
:100F00002802CDCF8C3F19F41216CCF3C8CF843F02
:100F100031F4809124028E7F80932402C0CF853FDC
:100F200021F4809124028D7FF7CF863F21F48091B8
:100F300024028B7FF1CF873F21F480912402877FA9
:100F4000EBCF883F21F4809124028F7EE5CF8D3F47
:100F500031F480911E028E7F80931E02A0CF8E3FBF
:100F600021F480911E028D7FF7CF8F3F09F097CF3C
:100F700080911E028B7FF0CF089580911E0280FF2A
:100F80000CC06091110170E0759567957595679536
:100F90006115710549F1862F089581FF06C06091A2
:100FA000110170E075956795F3CF6091110182FD95
:100FB0000BC090911C029923A1F0609110018091C7
:100FC0001101961738F0682F70E06038710500F352
:100FD0008FE70895899FC001112470E00E947B2F44
:100FE000F4CF61E070E0D7CF81E0089580911E02D8
:100FF000609164037091650380FF16C02091150114
:10100000269FC001279F900D1124BC0176956795FE
:10101000769567956038710508F043C061157105D4
:1010200009F441C0862F089581FF0BC0209115015E
:10103000269FC001279F900D1124BC0176956795CE
:10104000E9CF82FF09C0809115019B01829FB00109
:10105000839F700D1124DECF20911D022223D1F237
:101060009091140180911501482F50E0291748F004
:10107000CB01849FB001859F700D949F700D11244A
:10108000C9CF289F90011124269FA001279F500DB2
:10109000369F500D1124692F70E0CA010E94672FFE
:1010A000B9CF8FE7089581E00895803F31F40E9421
:1010B000F6078195809326020895813F19F40E94D6
:1010C000F607F8CF823F31F40E94F60781958093AE
:1010D00025020895833F19F40E94F607F8CF893F4F
:1010E00029F40E94BD078093270208958A3F21F4C6
:1010F0000E94BD078195F7CF8B3F31F40E94BD0759
:1011000081958093280208958C3F19F40E94BD07B1
:10111000F8CF843F31F480912402816080932402CF
:101120000895853F21F4809124028260F7CF863FA5
:1011300021F4809124028460F1CF873F21F48091D3
:1011400024028860EBCF883F21F4809124028061E3
:10115000E5CF8D3F31F480911E02816080931E02A5
:1011600008958E3F21F480911E028260F7CF8F3F59
:10117000B9F780911E028460F1CF80E008959091CC
:101180003E0492FF06C0282F28712830F9F4877F8B
:10119000846093FF06C0282F28712831F1F4877EE0
:1011A000846120913F0420FF06C0382F3871383009
:1011B000D9F4877F816021FF06C0282F287128314C
:1011C000D1F4877E816194FD877E0895282F247154
:1011D0002430F9F68B7F8860DCCF282F24712431EE
:1011E00001F78B7E8861DDCF382F3171313019F7EF
:1011F0008E7F8860E0CF282F2171213121F78E7EEC
:101200008861E1CFCF93DF93EC0182389105A9F19A
:10121000D8F58133910509F496C048F589329105D6
:1012200009F48AC08A9709F495C0C11521E5D2074F
:1012300008F0BCC0C11530E5D30708F014C1C83EA2
:10124000D10508F09CC0C03ED10560F5C83AD10573
:1012500008F087C0C53AD10508F0FDC0C130D105FE
:1012600009F12097F9F0C430D105E0F440C085338E
:10127000910509F45AC0C997C1F680913E04837064
:1012800089F0C0EED0E00EC0833E910599F170F474
:10129000803E910501F1823E910539F680913E0430
:1012A00082FD21C0CE01DF91CF910895863E910548
:1012B00061F1873E910571F1843E910509F0B5CF4A
:1012C00080913F0481FFEECF80913E04C7EED0E0D5
:1012D00084FD0DC0E7CF80913E0480FD12C1909146
:1012E0003F0490FFDFCFC3EED0E084FFDBCFD0E040
:1012F000C0E0D8CF80913E0482FD06C190913F04AA
:1013000090FDBFCF84FFCECFF2CF80913E0483FD0E
:10131000DDCFC8CF80913E0483FDF9C090913F049A
:1013200091FFF0CFC4EED0E0BDCF80913E0485FFA9
:10133000B9CFC9E2D0E0B6CF80913E0485FFB2CFED
:10134000C5E3D0E0AFCF80913E0486FFABCFCAE2C9
:10135000D0E0A8CF80913E0486FFA4CFC1E3D0E0C7
:10136000A1CFCF3BD10518F6C85AD0E0CC0FDD1F76
:10137000C85DDE4F0990D881C02DD46493CFC115CC
:1013800040E2D40758F4C11581E0D80708F08ACFAD
:10139000C03FD10508F4ABCFD06584CFC11590E430
:1013A000D90708F4A4CFDF70D06A7CCFC11525E53A
:1013B000D20700F5C11534E5D30708F08AC0C1157E
:1013C00043E5D40708F071C0C11582E5D80708F4D9
:1013D00067C0CE018370992721E030E002C0220F60
:1013E000331F8A95E2F7C695C69580E2C89FE00153
:1013F000112452C0C11599E5D907A8F4C11528E5F3
:10140000D20708F06BC0C11536E5D30708F06FCFDF
:101410008C2F0E94BF08C82FD0E0DC2FCC27CC2710
:10142000DF71D0623FCFC1154AE5D40708F45BC035
:10143000CE0190568115904208F059CF8D2F8F71B3
:101440000E94BF0890E0982F882788279F719C01F1
:101450002C2BE901E6CFC55AD0E0CB5DDE4FC88129
:10146000D0E0D0641FCFCE01E4E096958795EA9551
:10147000E1F783702C2F26952695237040E2249F58
:1014800090011124382B8C2F8370C1E0D0E002C072
:10149000CC0FDD1F8A95E2F7C22BD32BDC6802CF7D
:1014A000DC2FCC27C16FD06AFDCECE018370992787
:1014B00021E030E002C0220F331F8A95E2F7C69583
:1014C000C69590E2C99FE0011124C22BD32BDA68A4
:1014D000E9CEDC2FCC27C46FD06AE4CEDC2FCC273A
:1014E000C06FD06ADFCE8C2F8F700E94BF0834E0AF
:1014F000D695C7953A95E1F7CF709C2FEC01D0694E
:10150000D1CEC9E3D0E0CECEC2EED0E0CBCEC6EE97
:10151000D0E0C8CE80910202882331F010920202FE
:1015200010920102109200020895CF93C82F80916B
:101530003F0482FD0CC0809102028C1741F00E9492
:10154000F8059093010280930002C0930202CF91AC
:10155000089580959091730498239093730408954F
:10156000809590918F02982390938F020895909187
:101570008F02892B80938F0208951092FE011092A2
:10158000FD011092FC01089580915E0390915F032C
:10159000892B89F00E94F805209100023091010208
:1015A000AC01421B530B81E020915E0330915F033D
:1015B0004217530708F480E08170089580918F02EC
:1015C00090917304892B9091FF01892B809368017E
:1015D00080910202882319F180915E0390915F034C
:1015E000892B29F00E94C40A81110E948A0A8091E5
:1015F000680190910202892B8093680180911C01FF
:10160000882341F180913E0487FF24C08EE1EAE601
:10161000F1E090E0815000F591110E948A0AE0917A
:101620003504F09136043097E1F080911C01882355
:1016300059F080913E0487FF07C080916801809334
:10164000690186E0809368010280F381E02D88E6DD
:1016500091E0099486E0DBCF21912223D9F29F5FAC
:10166000D9CF0895EF92FF920F931F93CF93DF93FB
:10167000EC018A85811134C0EB80FC8087E5F81A83
:1016800026E12E9DC0012F9D900D1124DC01AD5748
:10169000BC4F1496ED91FC911597309731F054960C
:1016A0006D917C9187579C4F099586E18E9D8001B5
:1016B0008F9D100D11240D571C4FF80187810E943A
:1016C000B00AF80180850E94A90A0E94DE0A1882E9
:1016D00019861B861E821D8210928203109281033E
:1016E000DF91CF911F910F91FF90EF900895CF93CD
:1016F000DF93EC018989811118C081E0898B8F818A
:101700000E94B70A809173049885892B8093730493
:101710000E94DE0AEA81FB81309739F06C897D896D
:10172000CE010696DF91CF910994DF91CF91089574
:1017300080911A01877F80931A0182E00E94A90A92
:1017400080911A0184FF06C08F7E80931A0182E087
:101750000E94B70A80911A0185FF06C08F7D809391
:101760001A0180E20E94B70A0C94DE0A8091FB0104
:1017700081111092FB0108952091FA019091B90115
:10178000291302C080E0089530E0F90153E0EE0F24
:10179000FF1F5A95E1F7E654FE4F5181561306C0DC
:1017A0005081581303C05281541304C02F5F3F4F20
:1017B0002770E6CF81E008958091FA019091B901F8
:1017C000981301C008958F5F8770FACF9E3F41F153
:1017D0009295907FE92FE80F9E2F9770E695E695FA
:1017E000E69583E0E89FF0011124ED56FE4F50E0AE
:1017F00040E080E0219130E0092E02C03695279527
:101800000A94E2F721703327042E01C0220F0A94B4
:10181000EAF7822B4F5F5F4F4330510559F7089528
:1018200080E008959E3F61F19295907FE92FE80F47
:101830008E2F877041E001C0440F8A95EAF7E69544
:10184000E695E69583E0E89FF0011124ED56FE4F02
:1018500030E020E070E05191DF011197CB01022EC2
:1018600002C0969587950A94E2F781708195852745
:10187000842385278C932F5F3F4F2330310559F701
:101880000895E92FE295EF70E250EE3070F4F0E049
:10189000EF5EFF4C0C948F2F803F19F020F4883EB0
:1018A00020F481E00895843FE1F380E00895883ECC
:1018B000C0F3813FD1F7F5CF93FB882780F90895D6
:1018C00090E080E00E94790690E080E00E9463064C
:1018D000109273041092FF010E94DE0A86E0E3E298
:1018E000F2E0DF011D928A95E9F710921D02109235
:1018F0001C0210921E020C941307809372040C9425
:10190000600C80917204982F9670963019F488605C
:101910000C947D0C877FFCCF21E030E001C0220FCA
:101920008A95EAF720958091720482230C947D0CAD
:101930009091FE01809589238093FE01282F2770C6
:1019400091F4282F082E000C330B9217130659F030
:1019500090913F0492FD07C08595859585950E94DD
:101960008C0C0C94BD0A089521E030E001C0220FD8
:101970008A95EAF780917204822B0C947D0C9091E9
:101980003F0492FD10C098E0899F90011124622BC2
:101990006093FE010E94B40C0E94F8059093FD0133
:1019A0008093FC0108950C94B40C809303020C9472
:1019B000600C882321F00E94A90A0C94DE0A089585
:1019C000882339F090917304982B909373040C94AE
:1019D000DE0A0895882321F00E94B00A0C94DE0AE2
:1019E0000895882321F00E94B70A0C94DE0A089516
:1019F000882379F19CEF980F913A38F4682F88E6A4
:101A000091E00E9404060C94DE0A90E2980F983050
:101A100050F4877091E001C0990F8A95EAF7892FF9
:101A20000E94B00AF0CF9BE5980F933020F490E02D
:101A300080E00C94790698E5980F973120F490E0B7
:101A400080E00C946306803F20F00E943A070C94DB
:101A500013070895CF93C82F882309F46BC08CEF28
:101A60008C0F813AC0F580911C01882311F180917F
:101A70003E0487FF1EC0EC2FE695E695E695F0E064
:101A8000E859FE4F828190E04C2F477021E030E012
:101A900002C0220F331F4A95E2F782239323892B3A
:101AA00091F06C2F88E691E00E9404060E94DE0A05
:101AB0000AC0EAE6F1E080E791E02191C21789F3DC
:101AC0008E179F07D1F76C2F88E691E00E942E06B3
:101AD000CF910C94DE0A80E28C0F883048F4C770F6
:101AE00081E001C0880FCA95EAF70E94B70AF0CFDB
:101AF000EBE5EC0FE33040F4F0E0EB5DFE4F80816E
:101B000090E0CF910C947906E8E5EC0FE73150F4C2
:101B1000F0E0EE0FFF1FE85DFE4F80819181CF91D5
:101B20000C946306C03F30F08C2F0E945508CF9173
:101B30000C941307CF9108959C013A9521153F41CC
:101B400050F5FC01EE27F170BC0166277270AC0104
:101B5000442754709C012227387094FF0EC080E106
:101B6000EF2B09F480E0672B09F08062452B09F028
:101B70008064232B89F08068089581E0EF2B09F4BD
:101B800080E0672B09F08260452B09F08460232BED
:101B900019F08860089580E00895CF93DF93EC01F9
:101BA0000E94F80CCE010E949C0D9E01205E31091E
:101BB0002830310510F0CD2B21F4DF91CF910C941A
:101BC000EA0CDF91CF910C94D90CCF93DF93EC0109
:101BD0000E949C0D9E01205E31092830310510F0D5
:101BE000209739F40E94F10C8C2FDF91CF910C9447
:101BF0002A0D0E94E00CF8CF662329F0209173048F
:101C00002260209373049C013056211540E2340772
:101C100020F0305E2115304108F499270C94E50D31
:101C2000809340047093420460934104809168045F
:101C30008430F9F48093E9008FEF9091E8008150AF
:101C400095FD06C095ED9A95F1F700008111F5CF4D
:101C50008091E80085FF0DC050E040E063E070E057
:101C600080E494E00E94AB048091E8008E7780933A
:101C7000E8000895BC0184E00C94100EBC0183E0E0
:101C80000C94100E9C0184E08093E9009FEF8091FA
:101C9000E800915085FD06C085ED8A95F1F70000BA
:101CA0009111F5CF8091E80085FF0CC050E040E035
:101CB00066E070E0C9010E94AB048091E8008E7775
:101CC0008093E8000895CF93DF93EC0180911C018D
:101CD0008823B1F180913E0487FF32C060E284E046
:101CE0008093E9008FEF9091E800815095FD06C048
:101CF00095ED9A95F1F700008111F5CF8091E800FC
:101D000085FF1BC080911C0170E050E040E0811114
:101D100004C050E040E068E070E0CE010E94AB04F7
:101D20008091E8008E778093E80080E2FE01A6E4CF
:101D3000B4E001900D928A95E1F7DF91CF9108957B
:101D400068E081E0CDCF81E08093E00080E2809385
:101D5000D8001092C9008FE19EE40197F1F700C00E
:101D6000000087E090EBDC0180937404909375048D
:101D7000A0937604B093770488E19CE00FB6F894C2
:101D8000A895809360000FBE90936000FFCF0197ED
:101D900008F40895EFE9FFE03197F1F700C0000083
:101DA000F6CFDF92EF92FF920F931F93CF93DF93C3
:101DB0007C018B01D42E80911A0182FF8CC0C091CE
:101DC000B202D091B302CE15DF0521F0E114F10487
:101DD00009F081C080911A018B7F80931A0181FDE7
:101DE00073C08091B0029091B102A801481B590BB9
:101DF00081E020911801309119014217530708F42E
:101E000080E08170F82E80911A01F0FA81F98093B8
:101E10001A01FE0183E0F695E7958A95E1F7EE71E8
:101E2000FF27E057FD4F20813181AE014F705527CC
:101E300081E090E002C0880F991F4A95E2F7FF20E9
:101E400009F444C0822B932B9183808380918F026D
:101E500081FF08C080911A01806180931A0182E09D
:101E60000E94B00A80918F0285FF08C080911A01FC
:101E7000806280931A0180E20E94B00A6F2DCE0129
:101E80000E94FC0DDD2031F08091770385FF02C0B8
:101E900086FF3BC080917A0390917B030E94C70E1E
:101EA0008091B2029091B3029C013056211540E21C
:101EB000340720F0305E2115304108F499270E9444
:101EC000CD0D0E94980B1DC081E09BCF8095909511
:101ED00082239323B9CFC701992797013056211543
:101EE00040E2340728F0305E2115304108F0C70188
:101EF0000E94CD0D8091B2029091B3028E159F0584
:101F000001F31093B1020093B002DF91CF911F91C2
:101F10000F91FF90EF90DF9008951F93CF93DF9381
:101F2000182FC0917C03D0917D03893321F0C0919B
:101F30007A03D0917B03812F0E942A0D209731F4E0
:101F4000812FDF91CF911F910C94F80C8FE99FE0C6
:101F50000197F1F700C000002197F0CF0F931F9376
:101F6000CF93DF93C42FD22FFC0182818823A1F06D
:101F7000409380030E94F80590937F0380937E0333
:101F8000C77081E001C0880FCA95EAF7DF91CF9151
:101F90001F910F910C94F10C10918003141339C010
:101FA00080917E0390917F030E94E9052091740344
:101FB000309175038217930760F5C0E2CD0F1D17AE
:101FC000B9F080E2810F883040F4177081E001C0E1
:101FD000880F1A95EAF70E94EA0CC83048F481E0AD
:101FE0009D2F977001C0880F9A95EAF70E94F10C17
:101FF000802F0E948D0FC83098F4D77081E001C007
:10200000880FDA95EAF7DF91CF911F910F910C9429
:10201000EA0CC77081E001C0880FCA95EAF7F3CFD8
:10202000DF91CF911F910F910895AF92BF92CF9200
:10203000DF92EF92FF920F931F93CF93DF93EC0108
:102040008AE0A82E2881222309F48CC02130C9F50A
:1020500099818A81913021F422960E948D0F05C0CA
:10206000923029F422960E942A0D2196EBCF9330CC
:1020700021F422960E94F80CF8CF943011F02196AA
:10208000F4CF229630E020E0AE014F5F5F4F8053E7
:10209000990B8A30910550F02150310930F38FE9C6
:1020A0009FE00197F1F700C00000F6CFA29EB001BB
:1020B000A39E700D11249C01260F371F8981EA0110
:1020C000E3CFE22FF0E0E650FE4FB490822F8695EA
:1020D0008695869590E0FC01E651FE4FE4902770CE
:1020E000F12C022E02C0F594E7940A94E2F731E055
:1020F000E322FF24FC01E652FE4FC490D12C022EB5
:1021000002C0D594C7940A94E2F731E0C322DD24DB
:10211000FC01E653FE4F049110E002C015950795AF
:102120002A95E2F701701127E114F10419F081EE0C
:102130000E942A0DC114D10419F086EE0E942A0DC6
:102140008B2D0E948D0FCD2819F086EE0E94F80C81
:10215000EF2819F081EE0E94F80C012B09F485CFCD
:102160008CE27BCFDF91CF911F910F91FF90EF9089
:10217000DF90CF90BF90AF9008950F931F93CF93B0
:10218000DF930CE513E0C7EAD2E0CE010E94C52F31
:10219000F80181938F012196C93CF2E0DF07A9F78E
:1021A000C8ECD6E0FE0185919491009711F0FC01F6
:1021B00009952896F7E0C036DF07A1F7DF91CF91A8
:1021C0001F910F9108950F931F93CF93DF93843046
:1021D00030F5653020F5403110F520E2629F800136
:1021E000112450E0440F551F040F151F30EA839F40
:1021F000000D111D1124C80187960E94C52FC82FFC
:10220000D0E0DC2FCC27C80188960E94C52F9E0104
:10221000282BC901DF91CF911F910F91089590E074
:1022200080E0F8CF462F20918D0230918E02232B33
:1022300091F47E3F39F46E3F71F480918B0290915E
:102240008C020895843038F4753028F4603118F425
:10225000672F0C94E31090E080E00895CF92DF9216
:10226000FF920F931F93CF93DF936C010091720441
:1022700080910302082BC7E0D0E010E0FC2EC801DB
:102280000C2E02C0959587950A94E2F780FD0CC04C
:102290002197A0F7F12C8F2DDF91CF911F910F91F6
:1022A000FF90DF90CF900895B6018C2F0E941211FD
:1022B0000E940209019761F3EECFCF93DF93EC0107
:1022C0000E942E11BE010E941211DF91CF910C9439
:1022D0000209FC0186819781009721F00E94020982
:1022E0000C94410C808191810E945D11F9CF1F9364
:1022F000CF93DF9300D000D00F92CDB7DEB74983E4
:102300005A8389819A816623B9F02223A9F00E9419
:102310002E11182F682F89819A810E94120C6981D1
:102320007A81812F0F900F900F900F900F90DF9177
:10233000CF911F910C9412110E94E60B182FEFCF32
:10234000FC01262F86819781009739F440815181C5
:102350006281738184810C947711089583E290E007
:102360000E94C52F833A89F484E290E00E94C52F31
:10237000893459F485E290E00E94C52F91E08F36B0
:1023800009F090E0892F8170089580E0FCCFCF9311
:1023900084E090E00E94C52FC82F82E290E00E9466
:1023A000C52F982F8C2FCF9108950F931F93CF9304
:1023B000DF930CE513E0C7EAD2E0CE010E94C52FFF
:1023C000F80161918F01681719F0CE010E94D32F97
:1023D0002196C93CF2E0DF0781F7DF91CF911F9191
:1023E0000F910895ECE5F3E0128E138E8FEA90E0E2
:1023F0009183808385E0848F84EF91E0938382834F
:102400004CE251E05583448322E330E03783268356
:1024100085E090E0918780878AE090E093878287CB
:1024200064E170E0758764875787468744E650E02B
:10243000518B408B48E050E0538B428B48E250E098
:10244000558B448B378B268B28EC30E0318F208FD7
:10245000158E978F868F80E590E091A380A30E94D0
:10246000D5110C94BD10CF93DF93C9E6D3E060E0A3
:10247000CE010E94D32F2196C11584E0D807B9F769
:10248000DF91CF9108950F931F93CF93DF9389012D
:10249000843048F5653038F5403128F521153C4544
:1024A00031F420910E0130910F01232BE1F090E2E5
:1024B000699FE001112450E0440F551FC40FD51F40
:1024C00090EA899FC00DD11D1124612FCE018796FE
:1024D0000E94D32F602FCE018896DF91CF911F915C
:1024E0000F910C94D32FDF91CF911F910F910895ED
:1024F000CF93C82F6FEF811163EA83E290E00E94CF
:10250000D32F6FEFC11169E484E290E00E94D32FD2
:102510006FEFC1116FE685E290E0CF910C94D32F5D
:10252000CF93C0913F04C2FB992790F9981799F077
:1025300080FBC2F9C0933F0460913E0484E090E0C8
:102540000E94D32F6C2F82E290E00E94D32F82E072
:10255000CF910C94980CCF9108957F928F929F9277
:10256000AF92BF92CF92DF92EF92FF920F931F93A1
:10257000CF93DF93CDB7DEB764970FB6F894DEBF85
:102580000FBECDBFA0900E01B0900F0181E090E092
:1025900090930F0180930E0182E4C82E84E0D82E20
:1025A00000E0760110E015C0F40125913491472D2B
:1025B000612F802F0E94431282E0880E911C739439
:1025C000E0E17E12F1CFF0E2EF0EF11C1F5F15305B
:1025D00019F04701712CE8CF0F5F80EAC80ED11CBB
:1025E0000430F9F60E94F2111A8219821C821B82B1
:1025F0001E821D8218861F8288EC90E09A87898748
:1026000009EC12E04AE050E0B801CE0101960E94C8
:10261000F72F065F1F4F0931E3E01E0799F77E0190
:10262000FBE0EF0EF11C8AE0F70111928A95E9F7C1
:102630004AE050E0B801C7010E94F72F065F1F4F24
:102640000936F3E01F07A1F7B0920F01A0920E0127
:1026500064960FB6F894DEBF0FBECDBFDF91CF9169
:102660001F910F91FF90EF90DF90CF90BF90AF90B0
:102670009F908F907F90089580E00E94781260E094
:1026800086E290E00E94D32F0E94AD120E94331286
:1026900081E00C9478129B01883070F49AE0899F55
:1026A000B001112467537D4F4AE050E0C9010E94F8
:1026B000B52F90E080E008958FEF9FEF08958F92FF
:1026C0009F92AF92BF92CF92DF92EF92FF920F93C1
:1026D0001F93CF93DF93CDB7DEB72A970FB6F89449
:1026E000DEBF0FBECDBF03E813E0F12CE12C83E683
:1026F000C82E87E2D82E9DE8A92E97E2B92E2CECA1
:10270000822E26E2922EF801D182C082B382A2826A
:1027100095828482F58AE48ABE016F5F7F4F8E2D99
:102720000E944B13892B29F489859A85F801938B94
:10273000828BFFEFEF1AFF0A0A5E1F4F88E0E81650
:10274000F10409F72A960FB6F894DEBF0FBECDBF8D
:10275000DF91CF911F910F91FF90EF90DF90CF907D
:10276000BF90AF909F908F900895CF92DF92EF929D
:10277000FF920F931F93CF93DF93CDB7DEB72A97C6
:102780000FB6F894DEBF0FBECDBFEBE3F2E080E5FD
:10279000DF011D928A95E9F7E8E1F3E088E3DF01C4
:1027A0001D928A95E9F78BE3C82E82E0D82E7F012F
:1027B00009E113E0F701D182C0824AE050E0B8019C
:1027C000CE0101960E94B52F88E0FE013196D60118
:1027D00001900D928A95E1F789859A85D701139624
:1027E0009C938E931297BAE0CB0ED11CE7E0EE0ECD
:1027F000F11C065F1F4F0936F3E01F07D9F62A9632
:102800000FB6F894DEBF0FBECDBFDF91CF911F9101
:102810000F91FF90EF90DF90CF90089510928F026C
:1028200080911C01EAE6F1E0882359F080913E0492
:1028300087FF07C08EE1DF011D928A95E9F70C94AE
:10284000600C86E0F8CF1F93CF93DF93CDB7DEB750
:10285000AA970FB6F894DEBF0FBECDBF8AE694E00C
:102860002091F100DC012D93CD01B4E082379B076C
:10287000B9F780916B04833009F472C0B8F48130E9
:1028800009F449C0823009F4B3C08091E80083FFA5
:1028900096C280916A0490916B049A3008F08FC2BE
:1028A000E92FF0E0E15EFF4C0C948F2F8A3009F4A1
:1028B0008EC08B3009F471C0893039F780916A0479
:1028C000813219F780916E0490916F04009711F096
:1028D0000297D9F68091E800877F8093E800809185
:1028E000E80082FF38C09091F3008091F2000297D7
:1028F00031F48091F100813011F0863021F4809123
:10290000F100809345048091E8008B778093E80084
:102910000E94D504BACF80916A04813A09F0B5CFFC
:102920008091E800877F8093E80080916E04909109
:102930006F04892B61F460E286E494E070E00E9409
:1029400087058091E8008B778093E8009ECF60E058
:1029500090E080E0F3CF809168048111C0CF95CFE3
:1029600080916A04813A09F090CF80916E04909131
:102970006F04892B09F089CF8091E800877F8093CD
:10298000E8008091E80080FFFCCF80911C018093DB
:10299000F1008091E8008E77B9CF80916A0481328E
:1029A00009F073CF80916E0490916F04892B09F028
:1029B0006CCF8091E800877F8093E8000E94D50467
:1029C00080916C0480931C010E940E145ECF809154
:1029D0006A04813209F059CF8091E800877F8093A3
:1029E000E8000E94D50480916D04809344044DCF8B
:1029F00080916A04813A09F048CF8091E800877F8E
:102A00008093E8008091E80080FFFCCF809144042F
:102A1000BECF803899F0823809F0D1C180916E0420
:102A20008F70873008F0CBC18093E9008091EB0074
:102A300085FB882780F91092E90006C08091660422
:102A400090916704911182609091E800977F909334
:102A5000E8008093F1001092F1008091E8008E77F9
:102A6000AAC1882309F498C1823009F0A8C18091D5
:102A70006C0481119BC180916E048F702FEF280F21
:102A8000263008F09CC18093E9002091EB0020FFE4
:102A90008DC1933031F48091EB0080628093EB0024
:102AA00085C19091EB0090619093EB0021E030E0C4
:102AB00001C0220F8A95EAF72093EA001092EA00FB
:102AC0008091EB008860EACF811179C110916C048C
:102AD0001F778091E3008078812B8093E3008091C1
:102AE000E800877F8093E8000E94D5048091E80089
:102AF00080FFFCCF8091E30080688093E30082E058
:102B0000111183E0809368045AC18058823008F024
:102B100056C120916C0430916D042C3DE3E03E07DA
:102B2000A1F583E08A838AE289834FB7F894DE01B6
:102B3000139620E03EE051E2E32FF0E0509357007F
:102B4000E49120FF03C0E295EF703F5FEF708E2F9E
:102B500090E0EA30C0F0C7968D939D932F5F2431AB
:102B600059F74FBF8091E800877F8093E8006AE2C1
:102B700070E0CE0101960E9487058091E8008B7776
:102B80008093E8001CC1C096E7CF80916E049091BD
:102B90006F04432F55274330510509F44AC078F597
:102BA0004130510509F485C08BE590E0EAE5F7E096
:102BB0004230510509F003C12091E800277F20939E
:102BC000E80020917004309171048217930708F493
:102BD0009C0140E02115310509F070C041116EC023
:102BE0008091E80082FDC9CF80916804882329F292
:102BF000853019F28091E80083FFF2CFBECF4132D9
:102C0000510509F447C04232510509F0D8C083305C
:102C1000910508F0D4C0FC01EE0FFF1FE75AFE4FEC
:102C20000190F081E02D8A5A9E4FDC018C9190E05A
:102C30001DC0332721303105E9F02115310579F028
:102C400022303105F9F02330310509F0B8C0E7EC46
:102C5000F7E0E4918E2F90E0E7ECF7E007C0EFE1BA
:102C6000F8E0E4918E2F90E0EFE1F8E0009709F4AE
:102C7000A6C0A2CFE7EFF7E0E4918E2F90E0E7EF58
:102C8000F7E0F4CFE5EEF7E0E4918E2F90E0E5EE8B
:102C9000F7E0ECCF8330910508F091C0880F991FC1
:102CA000FC01E15AFE4F0190F081E02D89E090E0B7
:102CB00083CF82E190E0E5EBF7E07ECF809168047E
:102CC000882309F45ACF853009F457CF8091E80062
:102CD00083FD53CF8091E80082FD82CF8091E80090
:102CE00080FF78CF9091F3008091F200211531059B
:102CF00019F08830910550F041E0089709F040E064
:102D00008091E8008E778093E80064CF44914093EF
:102D1000F1003196215031090196E8CF803809F051
:102D20004EC08091E800877F8093E800809169041D
:102D30008093F10092CE811142C010916C04123048
:102D4000F0F58091E800877F8093E8001093690494
:102D50000E94D504112311F084E005C08091E300A6
:102D600087FDFACF81E08093680442E061EC81E066
:102D70000E94F40442E261EC84E00E94F40442E226
:102D800061EC82E00E94F40442E260EC83E00E9485
:102D9000F4048091680413C080916C04813079F44C
:102DA00081E0933009F080E0809367041092E9009D
:102DB0008091E800877F8093E8000E94D50480918D
:102DC000E80083FF0AC08091E800877F8093E800D5
:102DD0008091EB0080628093EB00AA960FB6F89486
:102DE000DEBF0FBECDBFDF91CF911F9108956AEE78
:102DF0007EEF90E080E00E94F12F60E082E090E0C2
:102E00000E94D32F60E083E090E00E94D32F1092C5
:102E1000030260E084E090E00E94D32F60E082E251
:102E200090E00E94D32F60E085E090E00E94D32FD5
:102E300060E086E090E00E94D32F6FEF87E090E0A3
:102E40000E94D32F40E050E0BA0188E090E00E9459
:102E5000E52F60E08DE090E00E94D32F40E050E04D
:102E6000BA0188E190E00E94E52F60E087E190E000
:102E70000E94D32F40E050E0BA018CE190E00E9424
:102E8000E52F70E060E080E290E00E94F12F40E0EA
:102E900050E0BA0188E190E00E94E52F80E00E94B6
:102EA00078120E943C1340E050E0BA018FE090E0BD
:102EB0000E94E52F40E050E0BA0183E190E00C94DD
:102EC000E52F8F929F92AF92BF92CF92DF92EF92B7
:102ED000FF920F931F93CF93DF9300D000D0CDB715
:102EE000DEB77C01DC0113964D915C91149711962D
:102EF0006C9111978C910E949B06811179C061E0C1
:102F0000C7010E94A0118C01F7018281811111C0BB
:102F1000D70112968C91811149C00031FFE51F073E
:102F200009F4EEC001312FE5120709F007C782E06E
:102F3000E8C08091000190910101019649F363E896
:102F4000C62E63E0D62EB12CA12C992493948091A7
:102F50000001909101018A159B05D4F2F60186814A
:102F60008823E9F0818592850817190739F4809143
:102F70008103909182030817190789F0D6011F96E3
:102F80009C921F971C961C930E931B97C6010E9440
:102F9000770BC60106960E94320B10927304BFEFA6
:102FA000AB1ABB0AE6E1CE0ED11CD1CF980122515B
:102FB0003F452031310508F0B7C68FEF93E00E94FE
:102FC000C52F5EEED52ED00E09E613E0882369F1F9
:102FD0008091FE01877061F0D70112968C91882351
:102FE00039F080913F0482FD03C082E00E94980C7A
:102FF0000F900F900F900F90DF91CF911F910F9135
:10300000FF90EF90DF90CF90BF90AF909F908F9008
:1030100008950115F4E01F07D9F2C8010E94C52FD9
:10302000811101C0DA940F5F1F4FD110F2CF1982C6
:103030001A821B821C82CC24CA9448012FEF821A68
:10304000920AC8010E94C52F89831A82882309F435
:10305000BFCF813009F048C0580132E0A30EB11C47
:10306000C4010E94C52F982E8A83882309F4B0CF0B
:10307000C5010E94C52FD82E8FEF890D833068F4CB
:10308000580143E0A40EB11CDB82DD2021F0CE010B
:1030900001960E9415108501D0CF54E09512FBCF08
:1030A000580184E0A80EB11CC80103960E94C52FE8
:1030B000DD2009F48DCF882309F48ACF8150990B44
:1030C000C89E9001C99E300D1124AD2DA150BB0B9F
:1030D000CD01820F931F0197F0F2EFE9FFE03197E6
:1030E000F1F700C00000F7CFCE0101960E94151045
:1030F0005401D1CF81E00E94B40C0E94810C68CFB2
:1031000081E00E948C0CF9CF82E0F5CF4FEFC4161E
:10311000D10411F008F01EC661E372E08C2D0E940C
:103120004B13892B29F586E18C9DF0018D9DF00DC7
:103130001124ED57FC4F8681813009F062C08091E7
:10314000310290913202892B99F080913302909153
:103150003402892B69F080913502909136022091DA
:10316000370230913802822B932B892B09F453C0FC
:1031700080910001909101018C159D0524F4D0925D
:103180000101C0920001F701828196E19C9D5001EE
:103190009D9DB00C112495012D573C4F6901D9011B
:1031A00050968C935097928116968C9116979923EE
:1031B00009F43FC01A961C930E9319978F5F1696C9
:1031C0008C930E94F805F60196878587809102020C
:1031D00087838091730490918F02892B808701905F
:1031E000F081E02D309741F0D60154966D917C919D
:1031F000C50187579C4F0995109382030093810363
:10320000A9C5823009F0B4CF809135029091360281
:10321000892B09F4ADCF26E12C9DC0012D9D900D89
:1032200011248D579C4FDC0150961C920E94770B05
:103230009FCF882309F48EC5F9018189882309F479
:1032400089C5C50187579C4F0E94320B83C5809169
:103250001A01816080931A01ABC580911A018E7F9B
:1032600080931A010E94980BA3C580911A018F7E4A
:10327000013E110531F0053E1105C9F480911A0196
:103280008F7D80931A0180911A0180FFA0C5D7011C
:1032900012968C910832110528F50E31110508F0AF
:1032A00074C00430110580F581118DC590C5C80129
:1032B0009056811540E2940720F0905E8115904170
:1032C00010F780911A0182FF82C58091790381FDF8
:1032D0007EC528E831E040E0B60190E080E00E9441
:1032E000D10E75C50933110558F40D32110518F4C6
:1032F0000B321105C9F69091770392FDD5CF08C026
:1033000004361105C1F3D0CF9091770394FDCCCF53
:10331000882309F4A1C090918F0280910202282F86
:10332000292B322F3D7FB1F11092B3021092B202DD
:103330003091770331FD2EC0F80143E0F695E79513
:103340004A95E1F7EE71FF27E057FD4F98012F7086
:10335000332781E090E002C0880F991F2A95E2F799
:10336000809590952081318182239323918380835E
:1033700060E0C8010E94FC0D809102028D7F0E94D6
:10338000950A82E00E94980C23CE9091770393FDDA
:103390008BCFBECF38E0F701A8E8B1E001900D92E5
:1033A0003A95E1F710928A0110928C0110928B01EC
:1033B000A090B202B090B3020A151B05B1F530918E
:1033C000770335FF32C040911A0141FB992490F8F0
:1033D00041FF02C036FF29C04091B0025091B102B6
:1033E000B601641B750B409174035091750364170B
:1033F0007507D8F491FF08C080911A01806180930D
:103400001A0182E00E94B00A80918F0285FF08C0F5
:1034100080911A01806280931A0180E20E94B00AB2
:10342000692DC5010E94FC0DD3CD90911A0121FB9D
:1034300091F990931A018D7F0E94950A1093B3021F
:103440000093B202D092B102C092B00280911A01F0
:10345000846080931A0195CF970140E0B601C801BE
:103460000E94D10EB5CD053F4CE5140709F467C0A5
:1034700008F45FC0063F8CE5180709F466C0D70161
:1034800012963C91332309F4C1C410928003033097
:10349000BDE51B0708F065C00A3FECE51E0730F4E8
:1034A000C80182509C45449708F060C00E94C71133
:1034B00090933F0480933E0400312CE5120709F4F9
:1034C00061C108F0DDC008304CE5140709F448C1BB
:1034D00008F0AFC004308CE5180709F433C108F0D8
:1034E00095C00230ACE51A0709F426C180913E046C
:1034F000826003301C4509F422C160913E041091A2
:103500003F0484E090E00E94D32F612F82E290E09C
:103510000E94D32F0E940E145BCD07E225EE45EEEC
:1035200068ED7CE56FC406E221EE40EE63EF7CE5DA
:1035300069C407E225EE44EE64EF7CE563C406E26D
:1035400021EE42EE65EF7CE55DC407E225EE46EE36
:1035500066EF7CE557C408E221E045EE69ED7CE5C5
:1035600051C40136FDE51F0709F4A0CF06315CE523
:10357000150709F44FC40A354DE5140709F453C182
:1035800008F02FC101158CE5180709F43CC10E3D68
:103590001C4509F445C1F70186819781009709F41C
:1035A00046C10E940209182F092FF701D280C58059
:1035B000C2943FE0C3228091FE018770C1F0AD2C20
:1035C000DD20B1F0892F807F803421F080E2810FEF
:1035D000883068F080913F0482FD09C082E00E943B
:1035E000980C8091FE018770AA24A3948111A12CCC
:1035F000902E92942FE09222FBE0F91508F4A4C1DA
:10360000E92DF0E0E75DFF4C0C948F2F80913E0494
:1036100080610630ECE51E0709F491C080913E04FC
:10362000886007301C4508F48AC080913E0480629F
:1036300086C080913E048D7F0C302CE5120709F482
:103640007EC070F480913E048C600A304CE5140713
:1036500009F475C008F488C080913E048E7F6FC065
:103660000E308CE5180709F485C080913E048B7FED
:103670000F301C4508F463C080913E048F7E5FC00C
:103680000C3FACE51A0709F479C068F50431ECE5A4
:103690001E0709F48BC080F402312CE5120709F4EF
:1036A00075C080913E048F7B03311C4508F447C0F0
:1036B00080913E04837F43C00A3F4CE5140709F420
:1036C00045C008F049C005311C4509F016CF80916E
:1036D0003E0482FB992790F921E0922790FB82F922
:1036E00090FB83F92CC001159DE5190709F454C01E
:1036F00088F480913F0483600E3FBCE51B0749F1CD
:1037000080913F048D7F0F3F1C4518F180913F044D
:103710008C7F1FC00230FDE51F0709F456C008F476
:103720004EC001361D4509F0E8CE90913E04892F28
:103730008F7E94FF806103C080913E0481608093FE
:103740003E04DBCE80913E048460F9CF80913F043B
:10375000816080933F04D1CE80913F048260F9CF95
:1037600080913E048064EBCF0E940E1480913E0451
:103770008068E5CF80913E04877FE1CF80913F0450
:103780008E7FE7CF80913E048F7DD9CF0E940E14AB
:1037900080913E048F77D3CF80913F04982F9095EE
:1037A00091708E7F892B90FB81F9D3CF0E940E14EC
:1037B00090913E04892F97FB87F98058C0CF61E034
:1037C0008EE090E00E94D32F98CE60E0F9CF8091F8
:1037D000900169E2811165E388E691E00E940406A8
:1037E00046C30B35ADE51A0701F10C351D4509F04F
:1037F000D2CE80913F0482FB882780F991E089270F
:103800000E949012C8CE0E940E14EFEFF4E32CE059
:10381000E150F0402040E1F700C000000E94A30EFC
:103820000E94F716D5CB81E0EBCF80E0E9CF828113
:1038300000811181882369F0C8010E942E11D82EC1
:10384000682FC8010E94120CB8018D2D0E94121120
:10385000A8CEC8010E94E60BD82EF6CF202F2F70DD
:10386000B22E802F807F19F0B29490EFB922DD2024
:10387000A9F0BB2059F080E2810F883010F01111BF
:1038800007C08B2D0E94B70A0E94DE0A812F5AC002
:1038900080917304B82AB0927304F6CF812F0E94EE
:1038A000F80CBB2009F450C080E2810F883010F082
:1038B000111104C08B2D0E94B00A03C08B2D0E94F1
:1038C000A90A0E94DE0A40C0302F3F70B32E802F1D
:1038D000807F803219F0B29480EFB822112321F159
:1038E000113009F4A4C0DD2009F4ADC0CC2009F4E6
:1038F0007DC020E0D7014C9111965C9111971296F2
:103900006C91129713967C91139714968C910E9448
:1039100077118091790381FDB9CFF701858180FF0F
:10392000B5CF8F70858362C080913F0482FF40C015
:10393000DD20C1F1BB2029F08B2D0E94B70A0E9427
:10394000DE0A80E00E942A0DA92DA850BB0B149717
:1039500010F40E948F06812F902F0E94410C81113C
:10396000C4C11092920110929101AA20B1F08091ED
:10397000FE0180FD12C0D70112961C928595859597
:1039800085950E94B40CC7010E9461178091FE01C9
:103990008595859585950E948C0C60E0C7010E94F5
:1039A000A01126CB80E00E94F80CBB2069F282CFE8
:1039B000DD2001F1C11004C0809102028B2917C0E3
:1039C00041E0C41206C0809102028B290E94950A30
:1039D000BBCF80917803823078F3C812EDCF0E947C
:1039E0008A0A8091FB01B812B092FB018B2D0E94D4
:1039F000F10CAACFC11006C00E948A0A8B2D0E942A
:103A0000EA0CA2CF8091780351E0C5120BC082303E
:103A100008F49ACF80918F028B2109F495CF0E94F0
:103A2000B60BEACF823040F3C812E6CF8DCFDD204F
:103A300029F085E08C1508F487CFD8CF94E09C1549
:103A400008F482CFDBCFCC20C9F280917C03909127
:103A50007D03193321F080917A0390917B030E94BA
:103A6000C70E812F0E94F80C6FCF802F8695869508
:103A7000837069F0813009F067CF812F902F9370A8
:103A8000D11002C090E080E00E9463065DCF812FDC
:103A9000902F9370D11002C090E080E00E947906D0
:103AA00053CF812FDD2029F00E9455080E94130773
:103AB0004BCF0E943A07FACF802F837091F5D11037
:103AC00043CF412F429546954770440F440F812FB5
:103AD0008F70042E01C0880F0A94EAF7212F2071FD
:103AE00014FF07C02FE030E001C0220F4A95EAF72B
:103AF0002095302F369536953370323069F050F47A
:103B000040910302313029F0822B84230E94D50C8E
:103B10001BCF842B822BFACF282B80910302822784
:103B2000F5CF8695DD2011F0802F8170882309F470
:103B30000BCF412F429546954770440F440F812F7C
:103B40008F70042E01C0880F0A94EAF7212F20718C
:103B500014FF07C02FE030E001C0220F4A95EAF7BA
:103B60002095302F369536953370323069F050F409
:103B700040917204313029F0822B84230E947D0C05
:103B8000E3CE842B822BFACF282B809172048227DC
:103B9000F5CFF02FFF70BF2EDD2029F08F2F0E9470
:103BA000B40C812F24CF812F0E94EA0C8B2D0E9410
:103BB0008C0CCACE123F89F160F4103FB9F0113F6E
:103BC00081F0DD2009F48CC0C11060CE802F8F7190
:103BD00028C0133F49F1143FA1F780913F0482FFB1
:103BE0002FC0802F8F71DD2011F31BC0DD2081F0ED
:103BF00024E02C1508F4A8CE202F2F7181E090E04E
:103C000001C0880F2A95EAF7909172048927B6CFF0
:103C100035E03C1508F498CEEFCF802F8F71D1108E
:103C2000C6CF0E94B40C90CE80E0DD2009F4A6CF70
:103C300081E0902F9F7101C0880F9A95EAF79ECF7F
:103C4000809178038230A0F18091FB01DD20F1F0BA
:103C50000E94B00A8091FE018770843041F40E9476
:103C6000BD0A802F8F710E948C0CA12C6DCE80918B
:103C70007803C816D0F7402F4F71B42E842F0E94BE
:103C8000B40C63E08B2D0E94BF0CEFCF0E94B70AEB
:103C900080917803C81640F00E94BD0A0E94B60BBE
:103CA00064E0802F8F71EFCF81E00E94980CDDCF10
:103CB000DD2059F0502F5F71B52E852F0E94B40C76
:103CC00063E08B2D0E94BF0C3FCE81E00E94980CD8
:103CD00081E08C1508F038CE82E00E94980C34CE3A
:103CE000C110B3CE802F8F7162CFDD2019F0C110CB
:103CF00038CE3BCEC11035CE20E0F7014081518156
:103D00006281738184810E9477118091790383FF9E
:103D100028CE8091910190919201029709F021CED5
:103D2000812F0E948D0F1DCE0031BFE51B0709F4C6
:103D3000E1C90131EFE51E0709F4E6C9680127E58D
:103D4000D21A882309F4E2C93FEFC316D10409F05F
:103D500008F40ECA8091770380FF39C00E94F805ED
:103D60006C01D70112968C91882309F47ECA809148
:103D70001A0182FF08C028E831E040E0B60190E077
:103D800080E00E94D10E0B31BCE51B0709F45FCA2D
:103D90000C31ECE51E0709F460CA90911A01892FD5
:103DA0008E7F90FF81600A31FCE51F0709F458CA35
:103DB000C8019056811520E2920728F0905E811587
:103DC000904108F060CA1092B3021092B202033F11
:103DD000BCE51B0709F4A7CB08F045CB083DFCE583
:103DE0001F0709F49ACB093D2CE5120709F4B3CB60
:103DF000073D3CE5130709F042CB06E221EE41EE18
:103E000067ED7CE5C7010E94AE0FE2C806311C4594
:103E100009F0C1CB80918F02982F9A7A2091760376
:103E200020FF04C0482F447409F090E021FF04C033
:103E3000482F417109F090E022FF04C0482F4878D4
:103E400009F090E023FF03C0827209F090E0332371
:103E500009F4BDCC81E0911101C080E08093900114
:103E600069E2911165E388E691E00E942E060E94C6
:103E7000DE0AAEC8CF92DF92EF92FF920F931F93AC
:103E8000CF93DF938091B601807F31F48091B301AD
:103E9000C091FA0181110BC0DF91CF911F910F9159
:103EA000FF90EF90DF90CF9008952196C77080919A
:103EB000B9018C1789F3F090B101E090B201C09084
:103EC000B401D090B501A6016E2D8F2D0E949B06E6
:103ED000D0E08111EACF8E0183E0000F111F8A9597
:103EE000E1F7F801E654FE4F81818E11DECF80812B
:103EF0008F11DBCF82818111D8CFE380F480EC1861
:103F0000FD0860E081EB91E00E94A01180917403B4
:103F100090917503E816F90640F68091B6018F700E
:103F200080618093B601F801E154FE4F80818F706B
:103F30008061808381EB91E00E946117DF91CF91D6
:103F40001F910F91FF90EF90DF90CF900C94DC0BBE
:103F50003F924F925F926F927F928F929F92AF9219
:103F6000BF92CF92DF92EF92FF920F931F93CF9366
:103F7000DF93CDB7DEB765970FB6F894DEBF0FBEFF
:103F8000CDBF8C0185E0F801DE01519601900D92C4
:103F90008A95E1F7D8014C9011965C901197129692
:103FA000EC9012971396CD90DC9060E081EB91E05D
:103FB0000E94A01181EBA82E81E0B82E8090B40160
:103FC0009090B501A4016091B2018091B1010E946D
:103FD0009B068111CAC1F090B301F601E819F909F5
:103FE0004F0160E0FF2009F46DC1C5010E94A011DE
:103FF00060907403709075033090B6018614970436
:1040000008F013C14091B4015091B501B090B101D5
:10401000A090B201832D807F6A2D09F0ADC08B2D59
:104020000E949B06FE2C81113BC0D80111968C91F9
:1040300011978A1135C08C918B1132C02091B70134
:104040003091B80116968D919C912817390741F54A
:10405000E11026C0832D8F7080618093B60181EBC3
:1040600091E00E9461178091B601F80185838F2D40
:1040700065960FB6F894DEBF0FBECDBFDF91CF912E
:104080001F910F91FF90EF90DF90CF90BF90AF9076
:104090009F908F907F906F905F904F903F9008958A
:1040A000F4EF6F16F1E07F0620F48091790380FF32
:1040B00021C0A601652D842D0E949B06811118C088
:1040C00081E08E2580FF16C04E2D652D842D0E9427
:1040D000BC0B882379F081EB91E00E94611788E0A6
:1040E000E1EBF1E0DF011D928A95E9F7F12CBFCFFA
:1040F00080E0E8CFA601652D842D0E949B068111EA
:1041000024C081E08E25B82FB170CB2E80FF2BC04C
:104110004E2D652D842D0E94BC0BD82E811123C0FD
:10412000498A5A8A89899A890E945D11292F229584
:104130002F70223060F0243088F49F7061F0F80115
:104140009581907F41F4FD2C92CF80E0DCCF9F7071
:1041500011F08823C1F3805E8830A8F3C8010E9463
:104160006117DC2CF0CFEE2009F481CF8091B601ED
:1041700081608093B601BACF8B2D0E949B0681117E
:1041800024C0D80111968C9111978A111EC08C9170
:104190008B111BC02091B7013091B80116968D91FB
:1041A0009C9117972817390781F4E1100EC01596D6
:1041B0003C92C8010E94611788E0F801A1EBB1E0D0
:1041C00001900D928A95E1F752CFC8010E946911C2
:1041D000882339F1EE2029F18091B6018032A0F0D8
:1041E0002091B1013091B2013A8729871B86DD8683
:1041F000CC868E878091B7019091B801988B8F877C
:10420000CE0109960E94611788E0F801A1EBB1E0A8
:1042100001900D928A95E1F70E943A1FFF24F394D2
:1042200026CFC8010E946117F9CF832D807F09F442
:1042300052CF9090B1018090B2014091B401509161
:10424000B501682D892D0E949B0681111CC0F801C3
:104250008181881118C08081891115C02091B70112
:104260003091B801868197812817390761F4E110F0
:104270000AC03582C8010E94611788E0D5011D92ED
:104280008A95E9F7F4CEC8010E946911882349F2A2
:10429000EE2039F28091B601803208F4B5CF20913A
:1042A000B1013091B2013A8329831B82DD82CC8235
:1042B0008E838091B7019091B80198878F83CE014A
:1042C0000196A0CF81EB91E00E94A0118091740330
:1042D000909175038816990680F6FE2CEE2009F45D
:1042E000A0CFE090B101D090B2014091B4015091C3
:1042F000B5016D2D8E2D0E949B06811128C0F801FD
:1043000081818D1124C080818E1121C02091B7013F
:104310003091B8018681978128173907C1F48091BF
:10432000790382FD49CF9091B60190FD45CF907FF2
:1043300009F442CF8091B6018583903F09F439CFCB
:10434000982F907F905F8F70892B858332CFC80123
:104350000E946911811158CF8091B60181608093CC
:10436000B601C8010E94611782CEEE2009F459CF30
:10437000C8010E946911F82E882309F452CF88E001
:10438000F801A1EBB1E001900D928A95E1F78091DF
:10439000B1019091B2010E945D110E943A1F67CE57
:1043A000CF93DF93CDB7DEB760970FB6F894DEBF3B
:1043B0000FBECDBF29873A874B875C876D877E8785
:1043C0008F87988BCE0109960E94A81F81112FC05C
:1043D00088E0FE013996DE01119601900D928A95D2
:1043E000E1F74C855D856A8589850E949B06811170
:1043F0001EC0A091B901B0E0CD0101968770992748
:104400002091FA012817190609F193E0AA0FBB1FA2
:104410009A95E1F7A654BE4F98E0FE0131960190BF
:104420000D929A95E1F78093B9010E94DC0B80917F
:10443000FA019091B901891317C060960FB6F894EC
:10444000DEBF0FBECDBFDF91CF9108950E940E1445
:104450001092B9011092FA0188E0E1EBF1E0DF017E
:104460001D928A95E9F7E3CFB8E08B9FC001112434
:1044700086549E4F0E94A81F8823F9F28091FA016A
:1044800090E00196877099278093FA01D0CFEF9240
:10449000FF920F931F93CF93DF938091B7028823EE
:1044A00061F0C091B6028CE0F82E8091B702C81777
:1044B00058F01092B7021092B602DF91CF911F917F
:1044C0000F91FF90EF900895EE24E394EC0EE092AC
:1044D000B6020C2F10E0CF9DE0011124C854DD4F2F
:1044E0004B815C81698188810E949B0681111BC080
:1044F0008E819F81892B21F488859985019651F4BD
:10450000288139814A815B816C817D818E819F8187
:104510000E94D021F09EF001F19EF00D1124E8548C
:10452000FD4F14821382CE2DC0CF10925B031092E8
:104530005A0310921B0180915903809358030E94E3
:10454000D4060C9447223F924F925F926F927F92D3
:104550008F929F92AF92BF92CF92DF92EF92FF9293
:104560000F931F93CF93DF93C091580397E0892E49
:1045700001E010E02CE0322E3EEF932E44244394D1
:10458000809159038C1315C00E944722DF91CF916F
:104590001F910F91FF90EF90DF90CF90BF90AF9061
:1045A0009F908F907F906F905F904F903F900C9472
:1045B000D406D0E0FE01EE0FFF1FE05BFC4F8081D0
:1045C0009181889ED001899EB00D1124A85EBC4FB8
:1045D00014962C911497211157C05090B702E8EB14
:1045E000F2E030E020E0712C5D01251508F04AC0B2
:1045F000E284F384D501CD90DC906FEF7FEF612CE6
:10460000462D50E0DA01AA0FBB1FAC0DBD1D0D9069
:10461000BC91A02D109731F0EA16FB0609F4BA01FF
:104620006394EECF6F3F7607A1F1D80102C0AA0FC5
:10463000BB1F6A95E2F77A2AB80102C0660F771F9E
:104640006A94E2F7AB014150510974161506F9F46A
:10465000329EF001339EF00D1124E854FD4F889EE8
:10466000D001899EB00D1124A85EBC4F12962D91E9
:104670003C9113973783268390829182918780871C
:1046800015964C920E94A6062196C37079CF14828B
:1046900013822F5F3F4F3C96A8CFEF92FF920F936C
:1046A0001F93CF93DF93CDB7DEB72B970FB6F89458
:1046B000DEBF0FBECDBF1092CC001092CD0088E1BE
:1046C0008093C90086E08093CA0083E78093CE0080
:1046D000CE0101967C018BE0D7011D928A95E9F706
:1046E000D7019E01245F3F4FC70140E050E0BA016F
:1046F0001091C80017FD0AC04F5F5F4F6F4F7F4F8B
:104700004131E7E25E076105710590F31091CE003B
:10471000FC011193CF01E217F30751F78B85803E1F
:10472000E9F1809100019091010110E006E101960C
:1047300009F075C080911B0181117BC080917703C6
:1047400080FF1EC080911A0182FF1AC00E94F805E6
:104750002091B0023091B102AC01421B530B209169
:104760001801309119014217530750F028E831E041
:1047700041E0BC018091B2029091B3020E94D10E3F
:1047800081E02B960FB6F894DEBF0FBECDBFDF9150
:10479000CF911F910F91FF90EF90089522E132E0A9
:1047A000A701465F5F4F11969C9111978C91F9017B
:1047B000819391939F0112964A175B07A1F7B1CF9E
:1047C000089FF001099FF00D1124ED57FC4FE2887E
:1047D000F388E114F10421F4E0907403F090750380
:1047E000089FF001099FF00D1124ED57FC4F8681C1
:1047F0008823A1F0858596850E94E905E816F906CB
:1048000068F4109F70011124C7018D579C4F0E94BE
:10481000770BC70187579C4F0E94320B1F5F812F78
:1048200090E020910001309101012817390744F6EA
:1048300081CF80915A0390915B03009709F47ECF5A
:104840000E94E9052091B4023091B502281739077A
:1048500008F074CF9091580380915903981759F03C
:104860000E94A3221092B5021092B40210925B0330
:1048700010925A0363CF0E94472210925B0310925A
:104880005A030E94D4065ACF2F923F924F925F92C2
:104890006F927F928F929F92AF92BF92CF92DF9250
:1048A000EF92FF920F931F93CF93DF93CDB7DEB7B5
:1048B00069970FB6F894DEBF0FBECDBF942F498B1A
:1048C000252F5A8B6B8B7C8B8D8B4C895D89622F4E
:1048D000892F0E949B06811109C0809191019091BE
:1048E0009201019690939201809391018B8981119D
:1048F000109273041D861E861F86188A85E0FE01AD
:104900007196DE01199601900D928A95E1F78091DA
:104910003F0482FD1EC080915E0390915F03892B4E
:10492000C1F00E94F8052091FC013091FD01821B2D
:10493000930B20915E0330915F038217930720F061
:104940008091FE0182FFF5C10E94C40A81110E947C
:104950008A0A4C855D856A8589850E949B0681113E
:1049600011C061E0CE0109960E94A0116C018B85F7
:1049700027EFC2162CE5D20681F4882321F181E0CD
:1049800080931B0129853A854B855C856D857E85E5
:104990008F8598890E94D021C5C038EFC3163CE5A9
:1049A000D30629F4882379F00E949522EBCF49EFB2
:1049B000C4164CE5D40639F4882329F080911B01F4
:1049C0008111F2CFDCCF08E113E0512CB12CA12CE6
:1049D00022242394312C2EEF422EF8014081518164
:1049E00088248A94982C20E0822F90E0FC01EE0F1E
:1049F000FF1FE40FF51F608171816115710531F0B2
:104A0000C616D70609F44C012F5FEECFF12CFFEF4D
:104A10008F169F0609F448C0F8014481F0901B01ED
:104A20008F2D411180E0F82FF170FF2EF801E58005
:104A300086819B85992309F40CC1FF2009F409C1E3
:104A40006090720370907303E11012C0A10101C065
:104A5000440F8A94EAF7842B86838091B402909164
:104A6000B5028615970520F47092B5026092B402E3
:104A7000C10102C0880F991F2A95E2F70197F8013A
:104A800026812817190681F480915A0390915B03BF
:104A9000009709F460C00E94E9056816790608F0DD
:104AA0005AC021E0F80124835F28FFEFAF1ABF0A44
:104AB000095F1F4F28E0A216B10409F08ECF8B8545
:104AC000882309F421C1552009F41EC10E94F8056C
:104AD00090935B0380935A038091B702883010F55E
:104AE00091E0980F9093B70298E0FE013996DE01AD
:104AF000119601900D929A95E1F73CE0839FC001D9
:104B0000112488549D4F28E0FE013196DC0101906C
:104B10000D922A95E1F72FEF3FEFFC0131872087B7
:104B2000D386C28669960FB6F894DEBF0FBECDBF9E
:104B3000DF91CF911F910F91FF90EF90DF90CF9079
:104B4000BF90AF909F908F907F906F905F904F90AD
:104B50003F902F9008958091580350915903982FBA
:104B6000F0E0E0E0851314C090935803E017F107DC
:104B700009F49ACF90E0FC01EE0FFF1FE05BFC4FC1
:104B8000B182A082019683709927809359038CCFBC
:104B9000682E712CF301EE0FFF1FE05BFC4F2081AC
:104BA000318147E0429FD001439FB00D1124A85EA0
:104BB000BC4F6D917C911197798F688F40E020E018
:104BC00030E0E32FF0E0EE0FFF1F688D798DE60FE8
:104BD000F71F8080918081149104E1F0F801019029
:104BE000F081E02DFF8BEE8B20E005C08616970646
:104BF00009F44F2D2F5FE22FF0E0EE0FFF1F6E89BB
:104C00007F89E60FF71F608171816115710571F76A
:104C10003F5FD7CF4423D1F0F801231708F0FD01FF
:104C200021E024830E171F0721F490935803F42EDC
:104C30003BCF981305C0AE17BF0711F49F5F937069
:104C400093012F5F3F4F822F83708CCFF0E0E0E025
:104C5000F7CF90E0E1101FC0B10102C0660F771FCF
:104C60002A95E2F79B01215031098217930731F40D
:104C7000442309F447C0C5010E94A606C10101C032
:104C8000880F8A94EAF7982F9095F80186818923F6
:104C90008683FE2C09CF9C01082C02C035952795F0
:104CA0000A94E2F7A90141705527BC0161507109CE
:104CB00086239723892B11F5452B01F1F801828179
:104CC0009381892BC1F01B821C821D821E82498226
:104CD0004A820E94F8058160582F9D838C83F801D9
:104CE000828193818F83988729813A814B816D815D
:104CF0007E810E94D021F8011582C0CFF22FF17081
:104D0000EF2EBCCFEF2CBACF90915803809159036E
:104D1000981731F00E94A322552009F433CE02CF18
:104D20000E94472210925B0310925A030E94D406FD
:104D3000F3CF82E00E94980C07CECF93DF9300D090
:104D400000D00F92CDB7DEB790938C0280938B0288
:104D5000811520E2920748F40F900F900F900F906A
:104D60000F90DF91CF910C94CD0D8EEF89838A83C4
:104D70001B820E94F8058160782F9D838C83498176
:104D80005A816B818D810F900F900F900F900F9033
:104D9000DF91CF910C9444240F931F93CF93DF9313
:104DA0008C01EB0161E372E08C2F0E944B13892B85
:104DB000A1F480917A0390917B030E94C70EDD27B6
:104DC000C75DDD4F8881F80110821882833009F1B8
:104DD00048F4813059F0823081F0DF91CF911F91FA
:104DE0000F9108958430D1F08530B9F78091310268
:104DF00090913202009789F306C08091330290911E
:104E00003402009799F3DF91CF911F910F910C9489
:104E10009D268091350290913602F3CF8091370222
:104E200090913802009779F7209131023091320247
:104E3000809133029091340221153105D9F2009707
:104E400011F7C901E0CFCF93DF9300D000D00F92CC
:104E5000CDB7DEB790938C0280938B02811520E250
:104E6000920748F40F900F900F900F900F90DF91E2
:104E7000CF910C94E50D8EEF89838A8381E08B833B
:104E80000E94F8058160782F9D838C8349815A8127
:104E90006B818D810F900F900F900F900F90DF918D
:104EA000CF910C944424CF93DF93EC010E942327ED
:104EB00080917A0390917B030E94C70ECE01DF910F
:104EC000CF910C949D260F931F93CF93DF938C016A
:104ED000862F61E372E00E944B13892BC9F4C091C5
:104EE0003102D0913202209799F0F801808183300D
:104EF00069F4CE010E945327CE010E945327CE01B0
:104F0000DF91CF911F910F910C9453278430B8F704
:104F1000DF91CF911F910F9108950F931F93CF931E
:104F2000DF938C01EB0161E372E08C2F0E944B1345
:104F3000892B09F064C0FE01FF27D8018C91E75D41
:104F4000FD4F8130D9F419969C911997992311F04E
:104F500080830CC01A969C919923D1F382E08083C0
:104F600080913302909134020097D9F480913102FC
:104F700090913202009709F442C013C08230E9F5E3
:104F800019968C91199781112DC01A968C918111C7
:104F90000EC083E0808380913502909136020097A5
:104FA00019F1DF91CF911F910F910C94232784E089
:104FB00080838091370290913802009791F7809119
:104FC0003102909132020097F9F00E9453278091AC
:104FD000330290913402009721F780913102909131
:104FE0003202DFCF85E080838091310290913202DE
:104FF000009729F00E945327F0CF86E08083DF914D
:10500000CF911F910F9108958091330290913402B6
:10501000B1CF1F920F920FB60F9211242F933F938F
:105020004F935F936F937F938F939F93AF93BF93B0
:10503000CF93DF93EF93FF93D091E900DF708091DE
:10504000EC00C82FC17080FDC0E81092E90080918B
:10505000F000877F8093F00078940E9423141092D0
:10506000E9008091F00088608093F000CD2BCF7034
:10507000C093E900FF91EF91DF91CF91BF91AF9184
:105080009F918F917F916F915F914F913F912F9160
:105090000F900FBE0F901F9018951F920F920FB692
:1050A0000F9211242F933F934F935F936F937F93AE
:1050B0008F939F93AF93BF93EF93FF938091E10002
:1050C00082FF09C08091E20082FF05C08091E1006B
:1050D0008B7F8093E1008091DA0080FF24C0809173
:1050E000D80080FF20C08091DA008E7F8093DA00A4
:1050F0008091D90080FF9DC080E189BD82E189BD9A
:1051000009B400FEFDCF81E08093680480914304E0
:10511000811109C00E945B040E9426058091E20073
:1051200084608093E2008091E10080FF17C080914D
:10513000E20080FF13C08091E2008E7F8093E20046
:105140008091E20080618093E2008091D8008062CB
:105150008093D80019BC85E0809368048091E100B9
:1051600084FF2BC08091E20084FF27C080E189BDCD
:1051700082E189BD89B5982F917080FFFBCF809126
:10518000D8008F7D8093D8008091E1008F7E80933E
:10519000E1008091E2008F7E8093E2008091E20046
:1051A00081608093E20080916904882309F447C0FC
:1051B00084E080936804809168048091E10083FF1B
:1051C00027C08091E20083FF23C08091E100877FA8
:1051D0008093E10082E080936804109269048091DA
:1051E000E1008E7F8093E1008091E2008E7F8093CA
:1051F000E2008091E20080618093E20042E060E0A2
:1052000080E00E94F4048091F00088608093F000B8
:10521000FF91EF91BF91AF919F918F917F916F918E
:105220005F914F913F912F910F900FBE0F901F9064
:10523000189519BC109268041092430474CF8091A1
:10524000E30087FD93E090936804B5CF78941F92B4
:105250001FB61F9211248F939F93AF93BF9380919A
:105260003A0490913B04A0913C04B0913D04019616
:10527000A11DB11D80933A0490933B04A0933C047C
:10528000B0933D04BF91AF919F918F911F901FBE2E
:105290001F9018951F921FB61F9211248F939F93F2
:1052A000AF93BF9380913904811113C080913A0468
:1052B00090913B04A0913C04B0913D044196A11D06
:1052C000B11D80933A0490933B04A0933C04B093A7
:1052D0003D04BF91AF919F918F911F901FBE1F9072
:1052E0001895CDB7DEB7E4970FB6F894DEBF0FBEC2
:1052F000CDBF84B7877F84BF0FB6F894A8958091FF
:105300006000886180936000109260000FBE80E8AA
:1053100090E00FB6F89480936100909361000FBE07
:1053200085B7806885BF85B7806885BF8DEB98E0BD
:1053300090936701809366010E945F130E94B513EA
:105340000E94BD100E945B040E9426058091E2002D
:1053500084608093E2007894809168048823A1F0AF
:105360001091E9001F709091EC00892F817090FDE1
:1053700080E8182B1092E9008091E80083FD0E94DC
:1053800023141F701093E90082E084BD93E095BD63
:105390009AEF97BD80936E000E94AE11811102C0FA
:1053A0000E943C1390E080E00E94CD2F8A3E9E4FE9
:1053B00021F40E94AE11811102C00E94F71682E012
:1053C00090E00E94C52F809305020E94C711909320
:1053D0003F0480933E040E944D233FEF46E781E067
:1053E000315040408040E1F700C000000E944D2352
:1053F0008091120280FF08C06FEF7FEF90E080E0A5
:105400000E94F12F0E94A30E83E090E00E94C52F1E
:105410000E94D50C1092CC001092CD0088E18093B0
:10542000C90086E08093CA0082E091E09093360440
:105430008093350478E1672E712CE0E45E2EFCE168
:10544000CF2EF2E0DF2E8E010F5F1F4F8091680498
:1054500050E1E52E62E1F62E853009F421C10E946B
:105460004D23882359F08FB7F89440913A04509116
:105470003B0460913C0470913D048FBFA2E1B2E017
:10548000E6E0F2E0F12CE12C7E2D8D919D912191B1
:1054900031912817390709F413C12827392760E00B
:1054A000AA24A394B12CA9014A215B21452B09F41C
:1054B00001C16BA77CA79C012A213B2191E0232BF2
:1054C00009F490E09DA70E94F8058160782F9FA7BE
:1054D0008EA74BA55CA56DA58FA50E944424F7015E
:1054E000EE0FFF1FEA5FFD4F80819181A826B9264C
:1054F000B182A08286E0E3E2F2E0D80101900D9251
:105500008A95E1F7A0902502B0902602E09027024C
:10551000F090280210922502109226021092270283
:10552000109228028A2D8B2991F08091210290916E
:1055300022020E94E905AC0190911D02992309F411
:10554000D8C0809116018417150608F4E0C08E2D8E
:105550008F2991F080911F02909120020E94E9050D
:10556000AC0190911C02992309F410C180911201A1
:105570008417150608F418C180912502909126021F
:10558000892B90912702892B90912802892B11F069
:105590000E94130786E0F801A3E2B2E001900D92A9
:1055A0008A95E1F70E948F0690910402891721F0F5
:1055B0000E948F068093040280916804843009F071
:1055C00045CF83E08093E9008091E80082FF3ECFE1
:1055D0008091E80090E085FF0AC00E947A0450E2C2
:1055E000A52EB12C7801882309F427C191E0809180
:1055F000E8008B778093E800992309F427CFE090A7
:105600008D02F0908E028981E114F10409F423C126
:105610008E3F09F06BC18A81833020F08550833042
:1056200008F064C1EA81EE3008F060C1F0E0EB5CA4
:10563000FF4C0C948F2F80916804843009F11092F4
:1056400039040FB6F894A895609260000FBE50928E
:10565000600083B7817F846083BF83B7816083BF2D
:105660007894889583B78E7F83BF0FB6F894A895FA
:1056700080916000886180936000109260000FBE8E
:1056800080916704882361F00E944D23E2E1F2E0FB
:1056900081919191892B09F0C3C3CE16DF06C1F722
:1056A00080916804853009F4C6CF0E940E140E94D0
:1056B0008F06D5CE6F5FAA0CBB1C603109F0F3CE0C
:1056C0009FEFE91AF90A25E0E216F10409F0DCCEB1
:1056D0008FEF88AB89AB1AAA0E94F8058160782FFA
:1056E0009CAB8BAB48A959A96AA98CA90E944424F8
:1056F00001CF209117018AE0289F900111242417DF
:10570000350708F024CF9F5F90931D0202C09F3F92
:10571000D1F7AA2059F00E94F6079FEF1A140CF453
:1057200091E0899F802D112480932502BB2059F0A0
:105730000E94F6079FEF1B140CF491E0899F802DC7
:1057400011248093260230912502332309F4FFCEE1
:1057500020912602222309F4FACE45EB3403C0013E
:105760001124992359F09093250245EB24039001CD
:105770001124332339F030932602E9CE81E080935F
:105780002502F3CF81E080932602E1CE2091130120
:105790008AE0289F900111242417350708F0ECCEE9
:1057A0009F5F90931C0202C09F3FD1F7EE2059F0FB
:1057B0000E94BD079FEF1E140CF491E0899F802D7D
:1057C000112480932702FF2059F00E94BD079FEF0C
:1057D0001F140CF491E0899F802D112480932802DE
:1057E00030912702332309F4C7CE209128022223C7
:1057F00009F4C2CE45EB3403C0011124992359F0BA
:105800009093270245EB240390011124332339F0B0
:1058100030932802B1CE81E080932702F3CF81E05C
:1058200080932802A9CE8091F100D7018D937D014C
:10583000B1E0AB1AB10809F4D9CE8091E80085FD3A
:10584000F2CF8091E8008B778093E8000E947A0481
:10585000882399F3CBCE8D3009F4CDC0B0F48430D9
:1058600009F4B0C040F4823041F108F09CC08130AE
:1058700001F18FEF01C3863009F4BAC008F4ADC05E
:105880008C30B9F780E18A8331C0813109F40CC1D1
:1058900040F48F3009F4DBC008F4B0C00E9433122A
:1058A00025C0833109F42BC108F400C18E3F09F7EC
:1058B000B9CE1A8289E08B8319C08A81823009F4BB
:1058C000FDC28330E1F18130A1F62FB7F8946091E9
:1058D0003A0470913B0480913C0490913D042FBFA9
:1058E0000E94952F6B837C838D839E8380916804B7
:1058F000843009F0ABCDF090E9002F2D2F70F22EFF
:105900009091EC00892F817090FD80E8F82A82E068
:105910008093E9008091E80080FF0CC050E040E0F7
:1059200060E270E0C8010E94AB048091E8008E77CD
:105930008093E8008F2D8F708093E90087CD809150
:105940000E0190910F01892B89F2809112029091A2
:1059500013029827892798279C838B8380911402B0
:10596000909115029827892798279E838D8380918F
:1059700016029091170298278927982798878F8376
:1059800080911802909119029827892798279A8761
:10599000898780911A0290911B029827892798275E
:1059A0009C878B87A3CF8A81823009F062CF6B817D
:1059B0007C818D819E810E94952F86E290E00E94DD
:1059C000D32F94CF4C816B818A810E94E31098275A
:1059D000892798279E838D8389CF2D813E81322709
:1059E000232732274C816B818A810E9443127ECF0C
:1059F0000E94AD127BCF1A8287E95DCFEC80F12C3B
:105A0000EDE1EE16F10408F071CFAA80BB80BA2454
:105A1000AB24BA244801E00EF11EC50187599C4F02
:105A2000E814F90409F462CFF7E9AF16B10460F4A1
:105A30000E94C52FD40114968C93FFEFAF1ABF0AB2
:105A40002FEF821A920AE9CFF4011482F6CF8091E7
:105A50000E0190910F01892B09F448CFAC80B12C35
:105A60003DE1A316B10408F041CFEA80FB80FE249B
:105A7000EF24FE244801AE0CBF1CC70187599C4F80
:105A8000AE14BF0409F432CF47E9E416F10428F458
:105A9000D40114966C910E94D32FBFEF8B1A9B0AEE
:105AA000EFEFEE1AFE0AE9CF84E0EDCEEC80F12CA8
:105AB000FDE1EF16F10408F019CFAA80BB80BA24EB
:105AC000AB24BA244801E00EF11EC50187968E145E
:105AD0009F0409F40BCF20E8A21622E0B20660F47E
:105AE0000E94C52FD40114968C93FFEFAF1ABF0A02
:105AF0002FEF821A920AE9CFF4011482F6CFAC801C
:105B0000B12C3DE1A316B10408F0F0CEEA80FB8091
:105B1000FE24EF24FE2440E8E41642E0F40608F0F8
:105B2000E5CE80E892E08E199F098A159B0508F45E
:105B3000DDCE4801AE0CBF1CC7018796EA14FB04FA
:105B400009F4D4CEA0E8EA16A2E0FA0620F4F401A3
:105B500064810E94D32FFFEF8F1A9F0A2FEFE21A62
:105B6000F20AEACF88E0EDE1F1E0DE0191960190E2
:105B70000D928A95E1F780E2D8011D928A95E9F7A6
:105B800084E0898388E0FE01B196DE0115960190DC
:105B90000D928A95E1F7AACE88EC898381E08A8309
:105BA0001B821C82A3CE8C81682F70E0762F662723
:105BB0008B81860F972F911D092E000CAA0BBB0B12
:105BC00045E0880F991FAA1FBB1F4A95D1F7AC016A
:105BD000BD01405E5F4F6F4F7F4F481759076A07FF
:105BE0007B0708F483CE883CE1E09E07A105B10560
:105BF00008F07CCE493CF1E05F076105710520F0BB
:105C000048EC51E060E070E0481B590BBC0166585D
:105C10007D4FC8010E949C2F69CE4EE150E06FEF8E
:105C200070E0CE0103960E94AE2F80910E01898311
:105C3000EA825CCE81E090E090938E0280938D02A8
:105C400082E390E090931102809310020E94F80585
:105C50004DCE80910E018983EA82809110022BCE75
:105C6000EB80FC8040E250E06FEF70E0C8010E94E2
:105C7000AE2F22EC36E0AAE5B7E090E080E0AC0180
:105C80004E5F5F4F4132510508F030CEF90165910A
:105C90007491E616F70630F4800F911FFC017183B2
:105CA0006083CA01285F3F4FA217B30741F71ECE9A
:105CB0004B815C8182EC96E02AE537E0FC0165913E
:105CC00074914617570709F4C1C008962817390779
:105CD000A9F7CFCD8B819C8122ECE22E26E0F22E1B
:105CE000F701259134918217930709F4C7C0F8E0B2
:105CF000EF0EF11C2AE5E21627E0F20689F7B9CD8E
:105D00000E94F211F3CD8B81823009F44DC0F0F482
:105D1000882309F43FC0813009F0E8CD8C819AE0F6
:105D2000F92E5E01B1E2AB0EB11CF5012F2D1192DF
:105D30002A95E9F7B5010E944B138983F501DE012D
:105D4000129601900D92FA94E1F7D0CD833009F4C8
:105D500049C0843009F0CACD6C818AE0FE013596D5
:105D6000DE01919601900D928A95E1F78FEF6830F0
:105D700068F4FAE06F9FB0011124675E7C4F4AE03F
:105D800050E0CE0181960E94F72F80E089830E9427
:105D9000B513ACCDFE0133968EE1DF011D928A95DD
:105DA000E9F788E089836FCD6C818AE0FE01359642
:105DB000DE01919601900D928A95E1F78FEF6830A0
:105DC00068F43AE0639FB001112467537D4F4AE0C5
:105DD00050E0CE0181960E94F72F80E089830E94D7
:105DE0005F1384CD6C812AE0CE018196DC01E22F25
:105DF0001D92EA95E9F7683088F4629FB00111249A
:105E0000675E7C4F4AE050E00E94B52F80E08983B6
:105E10008AE0FE01B196DE011296B9CE8FEFF7CF80
:105E2000E9BCF9BC09B400FEFDCF8091D8008F7D9C
:105E30008093D8008091E00082608093E0008091A0
:105E4000E00081FDFCCF0E940E142ACC9C012E5F45
:105E50003F4FF901459154914032510508F009CD69
:105E6000F90145915491FC01349665917491CE01EC
:105E700002960E94A52F80E0898338CDC701029643
:105E8000FC01259134912D31310508F0F2CCFC0153
:105E900045915491F701349685919491BE016B5FC1
:105EA0007F4F0E94A52F0E94D511F701369685914C
:105EB0009491009701F3FC010995DDCF86E290E013
:105EC0000E94C52F1B821C821D828E830FCDAA1BB0
:105ED000BB1B51E107C0AA1FBB1FA617B70710F0D5
:105EE000A61BB70B881F991F5A95A9F78095909507
:105EF000BC01CD01089597FB072E16F4009407D03E
:105F000077FD09D00E94672F07FC05D03EF49095DD
:105F100081959F4F0895709561957F4F0895EE0F7D
:105F2000FF1F0590F491E02D0994692796276927B2
:105F30007827872778270895FB01DC0102C00590A8
:105F40000D9241505040D8F70895FB01DC0102C08A
:105F500001900D9241505040D8F70895DC0101C0E6
:105F60006D9341505040E0F70895DC01CB01FC01F6
:105F7000F999FECF06C0F2BDE1BDF89A319600B4A2
:105F80000D9241505040B8F70895F999FECF92BD57
:105F900081BDF89A992780B50895A8E1B0E042E064
:105FA00050E00C94B72F262FF999FECF92BD81BDFA
:105FB000F89A019700B4021639F01FBA20BD0FB647
:105FC000F894FA9AF99A0FBE08950396272F0E9423
:105FD000D42F0E94D32F252F0E94D42F242F0C942E
:105FE000D42F0196272F0E94D42F0C94D32FDC019D
:105FF000CB0103C02D910E94023041505040D0F798
:106000000895262FF999FECF1FBA92BD81BD20BDFC
:106010000FB6F894FA9AF99A0FBE01960895F8947B
:10602000FFCF4C0C4C0C550C550C570C550C550C0B
:10603000550C4C0C4C0C5C0C550C550C5C0C09159F
:106040003115DF163115DF1664158515DF168E162E
:106050009B162E1C2E1C641C641C351D511DA41C7B
:10606000A41C5C1DC91DDA1DDA1DB22DCC2DD32D4B
:10607000762C762C0D2E1A2E292E762C302E582E7C
:066080006A2E802E832E23
:10608600FFFFE605630E420E3E0E3A0EE5050100E1
:106096002808641E140A321EAF000101014298DD71
:1060A600E07EC332D6818283E200E900EA00B500D1
:1060B600B600B700CD008301CC008A01920194019D
:1060C6002102230224022502260227022A02B30005
:1060D600B4006F0070004022BC8A016801AC006CFD
:0660E600078507A5070075
:00000001FF
