:100000000C941B030C9462030C9462030C94620323
:100010000C9462030C9462030C9462030C946203CC
:100020000C9462030C9462030C94AC190C94681940
:100030000C949F1E0C9462030C9462030C94620354
:100040000C9462030C9462030C9462030C9462039C
:100050000C9462030C947B1E0C9462030C94620358
:100060000C9462030C9462030C9462030C9462037C
:100070000C9462030C9462030C9462030C9462036C
:100080000C9462030C9462030C9462030C9462035C
:100090000C9462030C9462030C9462030C9462034C
:1000A0000C9462030C9462030C9462030501090230
:1000B000A10185020901A100050919012905150001
:1000C00025019505750181029501750381010501E1
:1000D000093009311581257F950275088106093897
:1000E0001581257F950175088106050C0A380215D2
:1000F00081257F950175088106C0C005010980A191
:1001000001850319012AB700150126B7009501756D
:10011000108100C0050C0901A101850419012AA064
:1001200002150126A002950175108100C005010984
:1001300006A1018505050719E029E71500250195A8
:1001400008750181020507190029EF1500250195A1
:10015000F0750181020508190129059505750191C0
:1001600002950175039101C00660FF0961A10109B3
:1001700062150026FF0095207508810209631500AD
:1001800026FF00952075089102C005010906A1010E
:10019000050719E029E71500250195087501810279
:1001A0009501750881010507190029FF150026FF33
:1001B0000095067508810005081901290595057542
:1001C000019102950175039101C029001E001F00D5
:1001D0002000210022002F004B004E0030002300A1
:1001E00024002500260027002A002B0014001A00F6
:1001F0000800150017002D00290029002E001C0002
:1002000018000C0012001300310039000400160021
:10021000070009000A00360049004A0037000B00B9
:100220000D000E000F0033002800E1001D001B0030
:100230000600190005002C002A004C002C001100BB
:100240001000360037005200E500E000E300E20055
:10025000A900AA00460000000000000000002900DC
:1002600034003800500051004F0029003A003B0094
:100270003C003D003E004400A900AA0045003F00AC
:1002800040004100420043002A002B0014001A00E5
:100290000800150017002D004B004E0030001C0018
:1002A00018000C0012001300310039000400160081
:1002B000070009000A0036002900290037000B005A
:1002C0000D000E000F0033002800E1001D001B0090
:1002D0000600190005002A002C002C004C0011001B
:1002E0001000360037005200E500E000E300E200B5
:1002F000A900AA004600000000000000000029003C
:1003000034003800500051004F0029001E001F002B
:100310002000210022002F004B004E00300023005F
:1003200024002500260027002A002B0014001A00B4
:100330000800150017002D002900290030001C00BE
:1003400018000C00120013003100390004001600E0
:10035000070009000A00360049004A0037000B0078
:100360000D000E000F0033002800E1001D001B00EF
:100370000600190005002A002C002C004C0011007A
:100380001000360037005200E500E000E300E20014
:10039000A900AA004600000000000000000029009B
:1003A00034003800500051004F0029001E001F008B
:1003B0002000210022002F004B004E0030002300BF
:1003C00024002500260027002A002B0014001A0014
:1003D0000800150017002D002900290030001C001E
:1003E00018000C0012001300310039000400160040
:1003F000070009000A00360049004A0037000B00D8
:100400000D000E000F0033002800E1001D001B004E
:100410000600190005002A002C002C004C001100D9
:100420001000360037005200E500E000E300E20073
:10043000A900AA00460000000000000000002900FA
:1004400034003800500051004F0029001E001F00EA
:100450002000210022002F004B004E00300023001E
:1004600024002500260027002A002B0014001A0073
:100470000800150017002D002900290030001C007D
:1004800018000C001200130031003900040016009F
:10049000070009000A00360049004A0037000B0037
:1004A0000D000E000F0033002800E1001D001B00AE
:1004B0000600190005002A002C002C004C00110039
:1004C0001000360037005200E500E000E300E200D3
:1004D000A900AA004600000000000000000029005A
:1004E00034003800500051004F00000000000000B0
:1004F00000000000000000000000000000007E0F6F
:1005000000D4FFFFFFC700000078000000000000DB
:1005100000002A2B2800000000000000000000005E
:10052000000000000029000000002C1E34202122C1
:1005300024342627252E362D3738271E1F2021222A
:10054000232425263333362E37381F0405060708A3
:10055000090A0B0C0D0E0F10111213141516171893
:10056000191A1B1C1D2F3130232D350405060708D1
:10057000090A0B0C0D0E0F10111213141516171873
:10058000191A1B1C1D2F3130354C09025B00030169
:1005900000A0FA0904000001030101000921110172
:1005A00000012240000705810308000A0904010038
:1005B00002030000000921110100012222000705A9
:1005C0008203200001070503032000010904020043
:1005D000010300000009211101000122BC000705F0
:1005E000840320000A1201100100000008EEFE65DD
:1005F000600100010200011003490046002000458F
:1006000000520047004F000000260353004B004EED
:10061000005800200049004E00460049004E0049A5
:1006200000540049002000540045004300480000E9
:1006300000040309040011241FBECFEFDAE0DEBF7F
:10064000CDBF04B603FE27C080914A0290914B02B1
:10065000A0914C02B0914D028730904BA740B04B17
:10066000D1F410924A0210924B0210924C02109256
:100670004D0214BE84B7877F84BF0FB6F894A89547
:1006800080916000886180936000109260000FBECE
:10069000E0E0F8E3099511E0A0E0B1E0ECEEFEE364
:1006A00002C005900D92AC34B107D9F722E0ACE45A
:1006B000B1E001C01D92AA34B207E1F70E94871A87
:1006C0000C943D1F0C940000E8EDF0E080818E7FDB
:1006D00080831092E2001092DA001092E100A0EE06
:1006E000B0E08C9181608C9380818F77808319BC7E
:1006F000A7EDB0E08C918E7F8C9380818F7E80837C
:100700001092140208952091E4003091E50095E6DE
:10071000A9012091EC00822F817020FF06C08091FA
:10072000E80080FF06C080E008952091E80022FDE7
:100730001AC080914202882389F0853089F0809127
:10074000EB0085FD0FC02091E4003091E5004217D9
:100750005307F9F29150E1F684E0089582E008959C
:1007600083E0089581E00895EF92FF920F931F9325
:10077000CF937C018B010E948303C82F811117C086
:100780008091E80085FD0BC08091E8008E77809312
:10079000E8000E948303882399F3C82F08C0F7015B
:1007A00081917F018093F1000150110949F78C2F4D
:1007B000CF911F910F91FF90EF900895CF93FC017F
:1007C00080914202843001F5C091E900CF70209100
:1007D000EC00922F917020FD90E8C92B82E080936D
:1007E000E9008091E80080FF0CC050E040E060E24A
:1007F00070E0CF010E94B4038091E8008E7780936F
:10080000E800CF70C093E900CF91089580913A023B
:1008100087FF13C08091E80082FF06C08091E80046
:100820008B778093E80004C0809142028111F2CF5F
:100830000895809142028823D9F38091E80080FFD7
:10084000F8CF8091E8008E77ECCF982F9093E90055
:10085000242F762F50E0891731F07091EC00209111
:10086000ED005091F00021FD07C09F5F973071F7B8
:100870008093E90081E008953091EB003E7F309352
:10088000EB003091ED003D7F3093ED003091EB00B7
:1008900031603093EB007093EC002093ED005093A7
:1008A000F0002091EE0027FDE0CF80E00895CF9288
:1008B000DF92EF92FF920F931F93CF93DF93C8EDD8
:1008C000D0E088818F7E8883E7EDF0E080818160D1
:1008D000808384E082BF81E08093140288818E7FD0
:1008E000888302EE10E0F80110821092DA0081EEA7
:1008F000C82ED12CF601108288818F778883888159
:100900008068888388818F7D888319BC1092420219
:1009100010923902109238021092370290EEE92EAE
:10092000F12CF70180818B7F8083888181608883AF
:1009300042E060E080E00E942504F60180818E7F25
:100940008083F801808181608083808188608083DA
:10095000F70180818E7F8083888180618883DF9129
:10096000CF911F910F91FF90EF90DF90CF9008955E
:10097000FC01809140029091410286179707A0F0F8
:100980006115710529F49091E8009E779093E80035
:1009900090E06115710551F4911108C08091E80053
:1009A00082FF34C080E00895BC01F2CF8091420202
:1009B0008823C1F18530C1F18091E80083FD30C00A
:1009C0008091E80082FDEACF8091E80080FFE1CFCE
:1009D0008091F3002091F200382F6115710519F014
:1009E0002830310558F091E02830310509F090E0C9
:1009F0002091E8002E772093E800CBCF819180935F
:100A0000F100615071092F5F3F4FE7CF80914202A3
:100A1000882341F0853041F08091E80083FFBECF0C
:100A200081E0089582E0089583E0089580911602A0
:100A300008959091F601803F59F48091F70187FF66
:100A40000DC01092F70191110BC01092F10108C076
:100A5000813F81F48091F70118169CF3992381F06E
:100A60008091F8019091F901892B09F064C01092EE
:100A7000EE010895823F49F497FFF0CF1092F601FE
:100A80008091F7018111ECCFE0CF833F19F4191663
:100A9000ACF3E4CF2091F801893F29F41216F4F663
:100AA0001092F801DBCF8A3F19F427FFD7CFF8CF98
:100AB0002091F9018B3F29F427FFD0CF1092F90143
:100AC000CDCF8C3F19F41216CCF3C8CF843F31F44C
:100AD0008091F5018E7F8093F501C0CF853F21F491
:100AE0008091F5018D7FF7CF863F21F48091F5014C
:100AF0008B7FF1CF873F21F48091F501877FEBCF8A
:100B0000883F21F48091F5018F7EE5CF8D3F31F450
:100B10008091E8018E7F8093E801A0CF8E3F21F481
:100B20008091E8018D7FF7CF8F3F09F097CF8091BB
:100B3000E8018B7FF0CF08958091E80180FD16C019
:100B400081FD16C082FD16C08091EE018823A1F0C0
:100B5000883280F428E0829FC001112468E270E0AE
:100B60000E94C61E862F672B39F0089582E00895F3
:100B700084E0089588E0089581E008958091E80177
:100B800080FD14C081FD14C082FD16C08091F1016A
:100B9000882381F0843180F422E3829FC0011124F4
:100BA00064E170E00E94C61E862F08958CE00895CF
:100BB00089E1089585E0089582E30895803F31F446
:100BC0000E94BE0581958093F7010895813F19F435
:100BD0000E94BE05F8CF823F31F40E94BE05819588
:100BE0008093F6010895833F19F40E94BE05F8CF63
:100BF000893F29F40E949C058093F80108958A3F5B
:100C000021F40E949C058195F7CF8B3F31F40E941F
:100C10009C0581958093F90108958C3F19F40E94F9
:100C20009C05F8CF843F31F48091F5018160809379
:100C3000F5010895853F21F48091F5018260F7CF99
:100C4000863F21F48091F5018460F1CF873F21F444
:100C50008091F5018860EBCF883F21F48091F50108
:100C60008061E5CF8D3F31F48091E8018160809310
:100C7000E80108958E3F21F48091E8018260F7CF6A
:100C80008F3FB9F78091E8018460F1CF9C014FB7A5
:100C9000F8948091100290911102A0911202B091EB
:100CA00013024FBF821B930B08952FB7F8948091C6
:100CB000100290911102A0911202B09113022FBF65
:100CC00008950E9455069C019091F6018091F701CC
:100CD000982B21F03093F3012093F2019091F801C9
:100CE0008091F901982B21F03093F0012093EF01CE
:100CF000E091EB01F091EC01309749F082E08093B4
:100D0000F4010480F581E02D84EF91E009940895C9
:100D100020910A012223C9F02091E90127FF15C083
:100D2000E62FE695E695E695EE31D8F4E80FF92F33
:100D3000F11D677021E030E001C0220F6A95EAF7EB
:100D400020958281282322830895FC0132960896FB
:100D50002191621303C0DF0111971C92E817F90774
:100D6000B9F7089520910A012223C1F02091E901E9
:100D700027FF14C0E62FE695E695E695EE31F8F4E8
:100D8000E80FF92FF11D677021E030E001C0220F5C
:100D90006A95EAF78281822B82830895FC0132965C
:100DA0002FEF30E04191641751F02F3F19F44111BA
:100DB00001C0232F3F5F3630A9F72F3F09F4089574
:100DC000820F911D27FD9A95FC0162830895809101
:100DD000E301882331F01092E3011092E2011092B6
:100DE000E10108958091E0019091DF01892B9091BC
:100DF000DE01892B80934C018091E301882329F146
:100E00000E9455062091E1013091E201821B930B73
:100E1000843F914010F00E94E70680914C01909130
:100E2000E301892B80934C0180910A01882341F1D1
:100E30008091E90187FF24C08EE1EEE4F1E090E0CB
:100E4000815000F591110E94E706E091EB01F091CD
:100E5000EC013097E1F080910A01882359F08091EC
:100E6000E90187FF07C080914C0180934D0185E027
:100E700080934C010280F381E02D8CE491E0099491
:100E800086E0DBCF21912223D9F29F5FD9CF08954D
:100E90009295907F890F982F977086958695869565
:100EA00025E0829FF0011124E755FE4F50E040E01D
:100EB00080E0219130E0092E02C0369527950A94F2
:100EC000E2F721703327042E01C0220F0A94EAF7BB
:100ED000822B4F5F5F4F4530510559F7089592952A
:100EE000907F890F982F977041E001C0440F9A9529
:100EF000EAF786958695869595E0899FF0011124FD
:100F0000E755FE4F30E020E070E05191DF0111978E
:100F1000CB01022E02C0969587950A94E2F7817064
:100F200081958527842385278C932F5F3F4F25301C
:100F3000310559F708958091A80190917701981390
:100F400001C008958F5F8770FACF882341F08095A4
:100F50009091E00189238093E0010C94F2060895BA
:100F6000882339F09091E001982B9093E0010C9444
:100F7000F206089520916E0130916F01281739070C
:100F800071F090936F0180936E01E091EB01F0910D
:100F9000EC01309721F00084F185E02D099408954B
:100FA00020916C0130916D012817390771F09093F1
:100FB0006D0180936C01E091EB01F091EC013097B1
:100FC00021F00680F781E02D099408951092DF0149
:100FD0001092DE010E94F20686E0E4EFF1E0DF010C
:100FE0001D928A95E9F71092F1011092EE0110928C
:100FF000E8010E94610690E080E00E94D00790E046
:1010000080E00C94BA076093460270934702809385
:101010004802909349020C94E6070F931F93609146
:1010200046027091470280914802909149028B01DB
:101030009C01067011272227332706301105210550
:10104000310529F468601F910F910C940308677FA4
:10105000FACF0F931F9341E050E060E070E004C0CE
:10106000440F551F661F771F8A95D2F7CB01BA012F
:101070006095709580959095009146021091470279
:1010800020914802309149026023712382239323E7
:101090001F910F910C9403089091DD018095892395
:1010A0008093DD01282F277091F4282F082E000C43
:1010B000330B9217130659F08595859585950E94F7
:1010C00029081092DD011092DC011092DB010895D5
:1010D0000F931F9341E050E060E070E004C0440FC4
:1010E000551F661F771F8A95D2F78091460290910F
:1010F0004702A0914802B09149028A019B01082B46
:10110000192B2A2B3B2BC901B8011F910F910C946D
:1011100003086093E4017093E5018093E6019093E6
:10112000E7010C94E6078823B1F19CEF980F913A00
:1011300038F4682F8CE491E00E9488060C94F20643
:1011400090E2980F983088F4877021E030E0A90190
:1011500002C0440F551F8A95E2F7CA01809590910D
:10116000E00189238093E001E9CF9BE5980F93305C
:1011700020F490E080E00C94D00798E5980F973128
:1011800020F490E080E00C94BA07803F20F00E94A9
:1011900019050C9461060895CF93C82F882309F48C
:1011A0006FC08CEF8C0F813AC0F580910A018823C3
:1011B00011F18091E90187FF1EC0EC2FE695E695BD
:1011C000E695F0E0E45BFE4F828190E04C2F4770A3
:1011D00021E030E002C0220F331F4A95E2F782235C
:1011E0009323892B91F06C2F8CE491E00E94880668
:1011F0000E94F2060AC0EEE4F1E084E591E021915C
:10120000C21789F38E179F07D1F76C2F8CE491E0FA
:101210000E94B206CF910C94F20680E28C0F8830C7
:1012200068F4C77021E030E001C0220FCA95EAF7E8
:101230008091E001822B8093E001ECCFEBE5EC0F95
:10124000E33040F4F0E0E55FFE4F808190E0CF9125
:101250000C94D007E8E5EC0FE73150F4F0E0EE0F26
:10126000FF1FE25FFE4F80819181CF910C94BA07FE
:10127000C03F30F08C2F0E94DE05CF910C946106A8
:10128000CF910895E091EB01F091EC01309721F0BE
:101290000190F081E02D099480E008959091E9019A
:1012A00092FF06C0282F28712830F9F4877F8460C8
:1012B00093FF06C0282F28712831F1F4877E8461BE
:1012C0002091EA0120FF06C0382F38713830D9F458
:1012D000877F816021FF06C0282F28712831D1F433
:1012E000877E816194FD877E0895282F24712430A4
:1012F000F9F68B7F8860DCCF282F2471243101F729
:101300008B7E8861DDCF382F3171313019F78E7FB8
:101310008860E0CF282F2171213121F78E7E8861EE
:10132000E1CFEF92FF921F93CF93DF93CDB7DEB75C
:101330002B970FB6F894DEBF0FBECDBF1092CC0036
:101340001092CD0088E18093C90086E08093CA00A6
:1013500083E78093CE00CE0101967C018BE0D7011C
:101360001D928A95E9F7D7019E01245F3F4FC7017F
:1013700040E050E0BA011091C80017FD0AC04F5F6D
:101380005F4F6F4F7F4F4131E7E25E0761057105A7
:1013900090F31091CE00FC011193CF01E217F307F7
:1013A00051F78B85803E89F426E032E0A701465F45
:1013B0005F4F11969C9111978C91F90181939193B4
:1013C0009F0112964A175B07A1F781E02B960FB693
:1013D000F894DEBF0FBECDBFDF91CF911F91FF907C
:1013E000EF900895CF93DF9300D00F92CDB7DEB783
:1013F00090914202943011F589837B836A839093A4
:10140000E9008FEF9091E800815095FD06C095EDC1
:101410009A95F1F700008111F5CF8091E80085FFE2
:101420000DC050E040E063E070E0CE0101960E9404
:10143000B4038091E8008E778093E8000F900F90BE
:101440000F90DF91CF910895BC0184E00C94F209D4
:10145000BC0183E00C94F2099C0184E08093E900D4
:101460009FEF8091E800915085FD06C085ED8A953B
:10147000F1F700009111F5CF8091E80085FF0CC0D5
:1014800050E040E066E070E0C9010E94B403809142
:10149000E8008E778093E8000895CF93DF93EC0106
:1014A00080910A018823B1F18091E90187FF32C060
:1014B00060E284E08093E9008FEF9091E800815032
:1014C00095FD06C095ED9A95F1F700008111F5CFD5
:1014D0008091E80085FF1BC080910A0170E050E018
:1014E00040E0811104C050E040E068E070E0CE01CF
:1014F0000E94B4038091E8008E778093E80080E238
:10150000FE01A7E1B2E001900D928A95E1F7DF912B
:10151000CF91089568E081E0CDCF81E08093E00035
:1015200080E28093D8001092C9008FE19EE4019779
:10153000F1F700C0000087E090EBDC0180934A02E5
:1015400090934B02A0934C02B0934D0288E19CE033
:101550000FB6F894A895809360000FBE909360003A
:10156000FFCFCF93C82F0E94CC08C93349F42FEF87
:1015700087EE93E0215080409040E1F700C00000EA
:101580008C2FCF910C9493080F931F93CF93DF93DD
:10159000C62FD42F022FFC0182818823A1F06093F3
:1015A00045020E9455069093440280934302C770FF
:1015B00081E001C0880FCA95EAF7DF91CF911F91B2
:1015C0000F910C94B00780914502681335C080914B
:1015D0004302909144020E944606883C910560F5C2
:1015E00010E21D0FCD17B9F080E28C0F883040F467
:1015F000C77081E001C0880FCA95EAF70E94A5076D
:10160000183048F481E09D2F977001C0880F9A959B
:10161000EAF70E94B007802F0E94B10A183098F4B0
:10162000D77081E001C0880FDA95EAF7DF91CF919A
:101630001F910F910C94A507C77081E001C0880F1E
:10164000CA95EAF7F3CFDF91CF911F910F910895DB
:10165000CF9384E090E00E94FB1EC82F81E290E0CF
:101660000E94FB1E982F8C2FCF9108950F931F93EC
:10167000CF93DF9320E2629FE001112450E0440FFA
:10168000551FC40FD51F30EA839FC00DD11D1124F3
:10169000CE0186960E94FB1E082F10E0102F002717
:1016A000CE0187960E94FB1E9801282BC901DF916D
:1016B000CF911F910F910895462F843038F47530E3
:1016C00028F4603118F4672F0C94360B90E080E01A
:1016D0000895CF93DF930E945C0BEC018238910553
:1016E000A9F1D8F58133910509F496C048F58932FE
:1016F000910509F48AC08A9709F495C0C11521E5BE
:10170000D20708F0BCC0C11530E5D30708F014C1FA
:10171000C83ED10508F09CC0C03ED10560F5C83A6E
:10172000D10508F087C0C53AD10508F0FDC0C13029
:10173000D10509F12097F9F0C430D105E0F440C09B
:101740008533910509F45AC0C997C1F68091E90122
:10175000837089F0C0EED0E00EC0833E910599F110
:1017600070F4803E910501F1823E910539F6809139
:10177000E90182FD21C0CE01DF91CF910895863E1F
:10178000910561F1873E910571F1843E910509F063
:10179000B5CF8091EA0181FFEECF8091E901C7EEDC
:1017A000D0E084FD0DC0E7CF8091E90180FD12C13A
:1017B0009091EA0190FFDFCFC3EED0E084FFDBCF52
:1017C000D0E0C0E0D8CF8091E90182FD06C19091C0
:1017D000EA0190FDBFCF84FFCECFF2CF8091E90127
:1017E00083FDDDCFC8CF8091E90183FDF9C09091E1
:1017F000EA0191FFF0CFC4EED0E0BDCF8091E901C6
:1018000085FFB9CFC9E2D0E0B6CF8091E90185FF6D
:10181000B2CFC5E3D0E0AFCF8091E90186FFABCF77
:10182000CAE2D0E0A8CF8091E90186FFA4CFC1E34E
:10183000D0E0A1CFCF3BD10518F6C85AD0E0CC0FED
:10184000DD1FC25FDE4F0990D881C02DD46493CFD5
:10185000C11540E2D40758F4C11581E0D80708F05B
:101860008ACFC03FD10508F4ABCFD06584CFC11576
:1018700090E4D90708F4A4CFDF70D06A7CCFC115FB
:1018800025E5D20700F5C11534E5D30708F08AC075
:10189000C11543E5D40708F071C0C11582E5D8072A
:1018A00008F467C0CE018370992721E030E002C0C0
:1018B000220F331F8A95E2F7C695C69580E2C89F2E
:1018C000E001112452C0C11599E5D907A8F4C1154A
:1018D00028E5D20708F06BC0C11536E5D30708F03C
:1018E0006FCF8C2F0E944E09C82FD0E0DC2FCC2761
:1018F000CC27DF71D0623FCFC1154AE5D40708F489
:101900005BC0CE0190568115904208F059CF8D2FC3
:101910008F710E944E0990E0982F882788279F7129
:101920009C012C2BE901E6CFC55AD0E0C55FDE4F04
:10193000C881D0E0D0641FCFCE01E4E096958795B2
:10194000EA95E1F783702C2F26952695237040E2C7
:10195000249F90011124382B8C2F8370C1E0D0E09C
:1019600002C0CC0FDD1F8A95E2F7C22BD32BDC68B7
:1019700002CFDC2FCC27C16FD06AFDCECE018370A1
:10198000992721E030E002C0220F331F8A95E2F749
:10199000C695C69590E2C99FE0011124C22BD32BB6
:1019A000DA68E9CEDC2FCC27C46FD06AE4CEDC2F16
:1019B000CC27C06FD06ADFCE8C2F8F700E944E096B
:1019C00034E0D695C7953A95E1F7CF709C2FEC019E
:1019D000D069D1CEC9E3D0E0CECEC2EED0E0CBCE3E
:1019E000C6EED0E0C8CEBF92CF92DF92EF92FF92C8
:1019F0000F931F93CF93DF938C01C0904602D0903A
:101A00004702E0904802F09049028091E4019091F1
:101A1000E501A091E601B091E701C82AD92AEA2A96
:101A2000FB2ACFE1D0E0BC2ED701C6010C2E04C0AA
:101A3000B695A795979587950A94D2F780FD0EC025
:101A4000219788F7B12C8B2DDF91CF911F910F91AA
:101A5000FF90EF90DF90CF90BF900895B8018C2F4A
:101A60000E94690B019761F3EECFCF93DF93EC01F6
:101A70000E94F30CBE01DF91CF910C94690B0E9480
:101A8000350D292F2F7092959F7092509E3078F4CB
:101A9000E92FF0E0E15CF04E0C94DA1E803F19F083
:101AA00020F4883E20F481E00895843FE1F380E053
:101AB0000895883EC0F3813FD1F7F5CF822F8695F8
:101AC0008695869508956F927F928F929F92AF929E
:101AD000BF92CF92DF92EF92FF920F931F93CF931B
:101AE000DF938AECC82E81E0D82E06EE10E0E801E4
:101AF000C05AD10936011CC0F50185909490692D1A
:101B0000C7010E94091F682DC70101960E94091F85
:101B100082E0A80EB11C82E0E80EF11CCE15DF05B4
:101B200059F780E2680E711CA0960C171D0731F062
:101B30007E0180E2E81AF1085301DECF00561F4F04
:101B400080EAC80ED11C063683E0180781F6DF91C3
:101B5000CF911F910F91FF90EF90DF90CF90BF90AA
:101B6000AF909F908F907F906F900895CF93DF9369
:101B7000C6EAD2E060E0CE010E94091F2196C1159D
:101B800084E0D807B9F7DF91CF910895CF93C82F9C
:101B90006FEF811161E282E290E00E94091F6FEF16
:101BA000C11161E183E290E00E94091F6FEFC11152
:101BB00065E284E290E0CF910C94091F6CEE7EEF19
:101BC00090E080E00E94271F60E082E090E00E94A9
:101BD000091F60E083E090E00E94091F1092E40179
:101BE0001092E5011092E6011092E70160E084E0B6
:101BF00090E00E94091F60E081E290E00E94091FCE
:101C000060E085E090E00E94091F60E086E090E0DF
:101C10000E94091F6FEF87E090E00E94091F40E0DB
:101C200050E0BA0188E090E00E941B1F60E08DE068
:101C300090E00E94091F40E050E0BA0188E190E086
:101C40000E941B1F60E087E190E00E94091F40E0B6
:101C500050E0BA018CE190E00E941B1F60E080E23E
:101C600090E00E94091F40E050E0BA0188E190E056
:101C70000E941B1F40E050E0BA018FE090E00E94FC
:101C80001B1F40E050E0BA0183E190E00C941B1F61
:101C90001092E00180910A01EEE4F1E0882359F00E
:101CA0008091E90187FF07C08EE1DF011D928A95CF
:101CB000E9F70C94E60786E0F8CF1F93CF93DF9304
:101CC000CDB7DEB7AA970FB6F894DEBF0FBECDBF73
:101CD0008AE392E02091F100DC012D93CD01B2E086
:101CE00082349B07B9F780913B02833009F471C0BD
:101CF000B8F4813009F448C0823009F4B2C0809150
:101D0000E80083FF3AC180913A0290913B029A30F9
:101D100008F033C1E92FF0E0E35BF04E0C94DA1EDB
:101D20008A3009F48DC08B3009F470C0893039F7DE
:101D300080913A02813219F780913E0290913F02E0
:101D4000009711F00297D9F68091E800877F809381
:101D5000E8008091E80082FF37C09091F300809105
:101D6000F200029729F48091F1008B7F813021F4F9
:101D70008091F100809316028091E8008B77809328
:101D8000E8000E940604BBCF80913A02813A09F034
:101D9000B6CF8091E800877F8093E80080913E0273
:101DA00090913F02892B61F460E287E192E070E05C
:101DB0000E94B8048091E8008B778093E8009FCF61
:101DC00060E090E080E0F3CF809142028111C1CFCA
:101DD00096CF80913A02813A09F091CF80913E02EC
:101DE00090913F02892B09F08ACF8091E800877F8C
:101DF0008093E8008091E80080FFFCCF80910A0189
:101E00008093F1008091E8008E77B9CF80913A02FB
:101E1000813209F074CF80913E0290913F02892B6C
:101E200009F06DCF8091E800877F8093E8000E94E1
:101E3000060480913C0280930A010E94480E5FCF05
:101E400080913A02813209F05ACF8091E800877F71
:101E50008093E8000E94060480913D028093150261
:101E60004ECF80913A02813A09F049CF8091E80043
:101E7000877F8093E8008091E80080FFFCCF80910D
:101E80001502BECF803899F0823809F076C0809173
:101E90003E028F70873008F070C08093E900809117
:101EA000EB0085FB882780F91092E90006C080913D
:101EB000370290913802911182609091E800977FEB
:101EC0009093E8008093F1001092F1008091E80077
:101ED0008E77B5C1882309F4A2C1823009F04DC0C4
:101EE00080913C028111A6C180913E028F702FEF3C
:101EF000280F263008F041C08093E9002091EB00C4
:101F000020FF98C1933031F48091EB008062809380
:101F1000EB0090C19091EB0090619093EB0021E079
:101F200030E001C0220F8A95EAF72093EA00109270
:101F3000EA008091EB008860EACF81111EC0109109
:101F40003C021F778091E3008078812B8093E3002F
:101F50008091E800877F8093E8000E9406048091CA
:101F6000E80080FFFCCF8091E30080688093E3006D
:101F700082E0111183E0809342028091E80083FFA8
:101F80000AC08091E800877F8093E8008091EB0091
:101F900080628093EB00AA960FB6F894DEBF0FBE66
:101FA000CDBFDF91CF911F9108958058823028F7DF
:101FB00020913C0230913D022C3DE3E03E07A1F52B
:101FC00083E08A838AE289834FB7F894DE0113960F
:101FD00020E03EE051E2E32FF0E050935700E4911F
:101FE00020FF03C0E295EF703F5FEF708E2F90E00F
:101FF000EA30C0F0C7968D939D932F5F243159F737
:102000004FBF8091E800877F8093E8006AE270E02C
:10201000CE0101960E94B8048091E8008B778093EE
:10202000E800ABCFC096E7CF80913E0290913F028F
:10203000432F55274330510509F44AC078F5413004
:10204000510509F47AC08BE590E0EAE8F5E042300A
:10205000510509F092CF2091E800277F2093E800F6
:1020600020914002309141028217930708F49C01AD
:1020700040E02115310509F065C0411163C0809130
:10208000E80082FDC9CF80914202882329F2853081
:1020900019F28091E80083FFF2CFBECF41325105A3
:1020A00009F43CC04232510509F067CF83309105F5
:1020B00008F063CFFC01EE0FFF1FE15CFE4F0190C3
:1020C000F081E02D845C9E4FDC018C9190E01AC081
:1020D000332721303105D1F02115310561F022304F
:1020E000310509F04ACFE7EFF5E0E4918E2F90E05B
:1020F000E7EFF5E007C0E1E3F6E0E4918E2F90E032
:10210000E1E3F6E0009709F438CFA5CFE9E0F6E087
:10211000E4918E2F90E0E9E0F6E0F4CF8330910572
:1021200008F02BCF880F991FFC01EB5BFE4F01904D
:10213000F081E02D89E090E08ECF82E190E0E5EE45
:10214000F5E089CF80914202882309F465CF85307C
:1021500009F462CF8091E80083FD5ECF8091E800B2
:1021600082FD8DCF8091E80080FF83CF9091F300B6
:102170008091F2002115310519F08830910550F059
:1021800041E0089709F040E08091E8008E77809365
:10219000E8006FCF44914093F1003196215031090E
:1021A0000196E8CF803809F0E8CE8091E800877F7B
:1021B0008093E800809139028093F10087CE8111ED
:1021C000DCCE10913C02123008F0D7CE8091E800AE
:1021D000877F8093E800109339020E940604112340
:1021E00011F084E005C08091E30087FDFACF81E023
:1021F0008093420242E061EC81E00E94250442E2C9
:1022000061EC84E00E94250442E261EC82E00E94DD
:10221000250442E260EC83E00E942504AECE80916A
:102220003C02813009F0A9CE81E0933009F080E0D2
:10223000809338021092E9008091E800877F8093B4
:10224000E8000E94060499CE4F925F926F927F92AF
:102250008F929F92AF92BF92CF92DF92EF92FF92B6
:102260000F931F93CF93DF9300D000D00F92CDB781
:10227000DEB77C01FC0183819481892B31F0808160
:10228000918189238F3F09F02CC50F900F900F90FB
:102290000F900F90DF91CF911F910F91FF90EF90D2
:1022A000DF90CF90BF90AF909F908F907F906F9076
:1022B0005F904F9008950E94F30C182F682F89812A
:1022C0009A810E946F0769817A81812F0E945C0B3D
:1022D0008C01F7018281882309F4F8C49801225106
:1022E0003F452031310508F0CAC48FEF93E00E94CA
:1022F000FB1E025156EAA52E52E0B52E882379F135
:102300008091DD01877009F4C0CFF70182818823B5
:1023100009F4BBCF82E00F900F900F900F900F90B9
:10232000DF91CF911F910F91FF90EF90DF90CF90B1
:10233000BF90AF909F908F907F906F905F904F90E5
:102340000C944C08A114F4E0BF06D1F2C5010E9420
:10235000FB1E811101C001502FEFA21AB20A011118
:10236000F1CF1C821B82662463944AE0542E8501BF
:102370000F5F1F4FC5010E94FB1E89831A828823AD
:1023800009F4BECF9FEF980F933008F58A836982D6
:1023900032E0A30EB11CC8010E94FB1E8B83882370
:1023A00009F4AECF8E010F5F1F4FF8012081222369
:1023B000F1F2213009F043C091818281913049F4DA
:1023C0000E5F1F4F0E94B10A0F5F1F4FEECF5801E3
:1023D000E9CF923029F40E5F1F4F0E94CC08F4CF52
:1023E000933029F40E5F1F4F0E949308EDCF943075
:1023F00019F00F5F1F4FE8CF0E5F1F4F30E020E056
:10240000B8016F5F7F4FF80141818053990B8A308B
:10241000910550F021503109B8F28FE99FE0019702
:10242000F1F700C00000F6CF529EF001539EF00D70
:1024300011249C012E0F3F1F842F8B01E1CFE22F2F
:10244000F0E0E65FFA4F7490822F86958695869528
:1024500090E0FC01E650FB4F84902770912C022EF7
:1024600002C0959487940A94E2F7E1E08E229924C1
:10247000FC01E651FB4FC490D12C02C0D594C79407
:102480002A95E2F7F1E0CF22DD248114910419F0BE
:1024900081EE0E94CC08C114D10419F086EE0E948E
:1024A000CC08872D0E94B10ACD2819F086EE0E9433
:1024B0009308892809F488CF81EE96CF81E00E94A5
:1024C00068080E940D081CCF81E00E942908F9CFFE
:1024D00082E0F5CF063F2CE5120709F461C008F44D
:1024E0005BC027E245EE66EE073F9CE5190709F45D
:1024F000E9C3882309F406C4109245020230ECE5D2
:102500001E0708F430C10631FCE51F0738F09801BA
:102510002B5F3C452930310508F025C10E94280B6E
:102520009093EA018093E90100312CE5120709F448
:10253000E9C008F073C008308CE5180709F4D4C06E
:1025400008F045C00430ECE51E0709F4C1C078F579
:1025500002302CE5120709F4B5C08091E9018260D0
:1025600003301C4509F4B1C06091E9011091EA0102
:1025700084E090E00E94091F612F81E290E00E94B8
:10258000091F0E94480EBCCE27E245EE65EE9AC3B5
:1025900026E241EE60EE96C327E245EE64EE92C37A
:1025A00026E241EE62EE8EC328E241E0EFCF063034
:1025B0008CE5180709F494C08091E9018860073020
:1025C0001C4508F482C08091E90180627EC0809140
:1025D000E9018D7F0C30ECE51E0709F476C070F43C
:1025E0008091E9018C600A302CE5120709F46DC076
:1025F00008F47EC08091E9018E7F67C00E308CE5C3
:10260000180709F47BC08091E9018B7F0F301C45CE
:1026100008F45BC08091E9018F7E57C00C3FECE568
:102620001E0709F459C030F503312CE5120709F4EF
:1026300071C078F401318CE5180709F467C00231E4
:102640001C4509F091CF0E94480E8091E9018F77D7
:102650003CC00531ECE51E0709F464C008F478C0FD
:102660008091EA0181600B3F1C4509F07DCF80938A
:10267000EA017ACF01153DE5130709F44FC088F44C
:102680008091EA018D7F0E3F9CE5190781F38091CF
:10269000EA018E7F0F3F1C4550F38091EA01836071
:1026A000E6CF0230FDE51F0709F45BC008F446C021
:1026B00060E003301D4509F057CF8EE090E00E94A6
:1026C000091F52CF8091E90181608093E9014CCFCD
:1026D0008091E9018460F9CF8091EA018260C7CFDF
:1026E0008091E9018061F1CF8091E9018064EDCFB3
:1026F0000E94480E8091E9018068E7CF8091E9014E
:10270000877FE3CF8091E9018F7DDFCF8091E90161
:102710008F7BDBCF8091E901837FD7CF8091EA0166
:102720008C7FA5CF8091E90182FB992790F921E068
:10273000922790FB82F990FB83F9C7CF8091EA0141
:10274000982F909591708E7F892B90FB81F98FCF78
:102750000E94480E9091E901892F97FB87F98058D4
:10276000B4CF61E0AACF06319CE5190709F0D7C2C2
:102770008091E0018A7A91E009F490E090937001F1
:1027800069E2811165E38CE491E00E94B2060E9447
:10279000F206B6CD0E94480EEFEFF4E32CE0E150D4
:1027A000F0402040E1F700C000000E948D0A0E9426
:1027B000DE0DA6CDC8010E944807D82EC7C2212F22
:1027C0002F70A22E107F19F0A29490EFA922DD2085
:1027D000C9F0AA2069F080E2800F883010F08110E3
:1027E0000BC08091E001A82AA092E0010E94F206AD
:1027F000802F0E94CC0818C08091DF01A82AA092E7
:10280000DF01F4CF802F0E949308AA2069F0A094E2
:10281000005E083010F081103BC08091E001A822DA
:10282000A092E0010E94F206EB2DE850FF0B3497D6
:1028300010F40E944209CC2009F427CD8091DD01DB
:1028400080FD23CDF70112828595859585950E949F
:102850006808C7010E9424118091DD018595859546
:1028600085950F900F900F900F900F90DF91CF9163
:102870001F910F91FF90EF90DF90CF90BF90AF909E
:102880009F908F907F906F905F904F900C9429084D
:102890008091DF01A822A092DF01C4CF312F3F70C9
:1028A000932E107F103219F0929480EF9822882096
:1028B00071F081E0881691F1DD20E1F1AA2071F03C
:1028C000F701858180FF94CF8F70858307C0DD205D
:1028D000C1F08091E301982AA11004C0892D0E94C3
:1028E000B007A2CF91E0A912F9CF891509F49CCFC6
:1028F0000E9455069093E2018093E1019092E301DA
:1029000093CFA11006C00E94E706892D0E94A5075B
:102910008BCFE1E0AE1609F487CFF5CFDD2029F0AB
:10292000F5E0FA1508F480CFD9CF24E02A1508F491
:102930007BCFEBCFAA2049F3F9E38F1299C12FEF98
:1029400037EE83E0215030408040E1F700C00000C6
:102950008FC1812F86958695837061F0813009F053
:1029600063CFC8019370D11002C090E080E00E9454
:10297000BA075ACFC8019370D11002C090E080E02E
:102980000E94D00751CF802FDD2029F00E94DE0564
:102990000E94610649CF0E941905FACF812F8370EA
:1029A00009F066C0D11040CF802F82958695877040
:1029B000880F880F602F6F70462E512C712C612C60
:1029C000082E04C0440C551C661C771C0A94D2F7D0
:1029D00040E050E0BA0104FF0FC04FE050E060E07B
:1029E00070E004C0440F551F661F771F8A95D2F709
:1029F0004095509560957095812F8695869583704A
:102A0000823019F1D8F40091E4011091E501209190
:102A1000E6013091E701813069F0442955296629A2
:102A20007729CB01BA0160237123822393230E946B
:102A30008908FACE402A512A622A732ACB01BA01A8
:102A40006429752986299729F2CF442955296629B1
:102A500077290091E4011091E5012091E601309180
:102A6000E701CB01BA016027712782279327DFCFC7
:102A70008695DD2011F0812F8170882309F4D4CE52
:102A8000802F829586958770880F880F602F6F70D2
:102A9000462E512C712C612C082E04C0440C551C60
:102AA000661C771C0A94D2F740E050E0BA0104FF9C
:102AB0000FC04FE050E060E070E004C0440F551FCD
:102AC000661F771F8A95D2F740955095609570954F
:102AD000812F869586958370823019F1D8F4009104
:102AE00046021091470220914802309149028130FC
:102AF00069F04429552966297729CB01BA01602359
:102B00007123822393230E9403088ECE402A512AE8
:102B1000622A732ACB01BA0164297529862997296B
:102B2000F2CF442955296629772900914602109150
:102B300047022091480230914902CB01BA01602737
:102B4000712782279327DFCF1F70DD2029F0812F87
:102B50000E946808802FC3CE802F0E94A507812F76
:102B60000E94290861CE802F92EF891609F458C07F
:102B7000981578F0E0EF8E1659F1F1EF8F1609F401
:102B800047C0DD2009F46FC0A11032CE812F8F71B4
:102B900044C023EF821609F448C034EF8312F1CF0A
:102BA000DD2009F455C01F71812F0E946808E8E0FC
:102BB0001E9FC001112483608093DD01812F0E943C
:102BC00068080E9455069093DC018093DB012CCEAF
:102BD000DD20C9F084E08A1508F426CE1F7161E07B
:102BE00070E080E090E004C0660F771F881F991F97
:102BF0001A95D2F70091460210914702209148029F
:102C0000309149029CCF95E09A1508F40DCEE6CF9D
:102C1000812F8F71DD2009F4A3CF0E94680804CEB4
:102C2000812F8F71DD20C9F39BCF60E070E0CB0175
:102C3000DD2009F468CF1F7161E070E080E090E072
:102C400004C0660F771F881F991F1A95D2F75BCFB4
:102C500081E00E944C08F1E0FA1508F0E5CD82E031
:102C60000E944C08E1CDAA2039F0893309F467CEDF
:102C7000802F0E949308D8CD812F8F7171CF0031A2
:102C8000FFE51F0709F41ACC01312FE5120709F4FB
:102C90001FCC043F2CE5120709F47ACC08F01ACCBB
:102CA000093D9CE5190709F46FCC0A3DECE51E07C8
:102CB00009F47ACC083DFCE51F0709F01ACC26E29E
:102CC00041EE61EEC7010E94C40A1ACB00313FE514
:102CD000130709F4F9CB01319FE51907D1F682E01A
:102CE000F4CB85E0DE01119601900D928A95E1F713
:102CF000F701228189819A812111DDCA0E9448074A
:102D0000182FE1CA06311C4599F48091700169E2DF
:102D1000811165E38CE491E00E94880638CD0115AD
:102D20002CE5120709F436CD0F3D1C4509F43FCDC3
:102D3000F70100811181882309F43CCDC8010E946C
:102D4000F30CD82E682FC8010E946F07B8018D2D93
:102D50000E94690B8C01882EF701A580A2943FE0A8
:102D6000A322D280D1101092DF018091DD01877003
:102D700099F0DD2089F0812F807F803421F080E27E
:102D8000800F883048F082E00E944C088091DD017D
:102D90008770CC24C3948111C12CB12EB2942FE042
:102DA000B222FBE0FB1508F43FCDEB2DF0E0E95A31
:102DB000F04E0C94DA1E1F93CF93DF93809176012F
:102DC000807FA9F480917301882389F08091A80104
:102DD000D09177016091710170917201A09174019D
:102DE000B0917501C62FC72316E0D81304C0DF9138
:102DF000CF911F91089590E0109711F0CF3F19F4F3
:102E000001968770F2CF189F9001199F300D112401
:102E1000F901E858FE4F41814713F2CF4081461334
:102E2000EFCF42814111ECCF438154814A1B5B0BB0
:102E3000483C510528F7809176018F70806180931E
:102E40007601F901E358FE4F80818F7080618083A5
:102E500081E791E00E942411DF91CF911F910C94A2
:102E60009B07AF92BF92CF92DF92EF92FF920F93A8
:102E70001F93CF93DF93CDB7DEB761970FB6F8946A
:102E8000DEBF0FBECDBF8C0185E0F801DE011D96CF
:102E900001900D928A95E1F7F80180819181E2809D
:102EA00021E7A22E21E0B22E60917401709175018C
:102EB0006115710509F43EC13091710140917201B3
:102EC000232F24232F3F09F435C1C380D480F090F1
:102ED0007301F601E61BF70BFF2009F4FBC02091FC
:102EE0007601522F507FE83CF10508F0BBC051112C
:102EF00078C0FE2C491321C038131FC0E1101DC03B
:102F00002F70206120937601C5010E9424118091C9
:102F10007601F80185838F2D61960FB6F894DEBF98
:102F20000FBECDBFDF91CF911F910F91FF90EF901A
:102F3000DF90CF90BF90AF900895CD2829F0282F33
:102F400029232F3F09F014C120E0F22FF170DF2E6A
:102F500020FF3DC02091A8014091770156E0241345
:102F600015C08D879E878D859E850E94350D292FE2
:102F700022952F702230F8F0243020F59F70F9F060
:102F8000F8019581907FD9F4D12C1FC030E0529F79
:102F9000F001539FF00D1124E858FE4F6181961304
:102FA00006C06081861303C06281E61210C02F5FE5
:102FB0003F4F2770D4CF9F7011F0882329F3805E94
:102FC000883010F3C8010E942411FD2CA4CFEE20FC
:102FD00009F4A1CF80917601816080937601F12C74
:102FE0009ACF491312C0381310C0E1100EC0F80177
:102FF0002583C8010E94241186E0F801A1E7B1E011
:1030000001900D928A95E1F786CF8D879E878D85F9
:103010009E850E943F0D882309F1EE20F9F08091F2
:103020007601803270F02091710130917201388701
:103030002F831986DB86CA868C87CE0107960E946D
:10304000241186E0F801A1E7B1E001900D928A9584
:10305000E1F70E94DB16FF24F3945DCFC8010E94C4
:103060002411F9CF51110AC081E791E00E94241187
:1030700086E0F50111928A95E9F7B1CF49130FC0A7
:1030800038130DC0E1100BC0F8012583C8010E9460
:10309000241186E0F50111928A95E9F73CCF8D87DE
:1030A0009E878D859E850E943F0D8823B9F2EE2074
:1030B000A9F280917601803220F220917101309145
:1030C00072013A8329831B82DD82CC828E83CE01FA
:1030D0000196B5CFE83CF105E0F6FE2CEE2009F4B0
:1030E000BDCF491316C0381314C08091760180FDFE
:1030F00083CF982F907F09F47FCFF8018583903F8D
:1031000009F477CF982F907F905F8F70892B8583FC
:1031100070CF8D879E878D859E850E943F0D811182
:1031200090CF80917601816080937601C8010E94E2
:103130002411F1CEEE2009F491CF8D879E878D85E5
:103140009E850E943F0DF82E882309F487CF86E0E4
:10315000F801A1E7B1E001900D928A95E1F7809125
:103160007101909172010E94350D0E94DB16D3CE41
:1031700021E02E25EACE1F93CF93DF93CDB7DEB7A4
:1031800067970FB6F894DEBF0FBECDBF4B8B5C8B3D
:103190006D8B7E8B8F8B1A8A198A85E0FE01739660
:1031A000DE011D9601900D928A95E1F70E94550669
:1031B0002091DB013091DC01821B930B843F914015
:1031C00020F08091DD0182FF7FC00E945506209192
:1031D000E1013091E201821B930B843F914010F09A
:1031E0000E94E70686E0FE013D96DE0117960190FB
:1031F0000D928A95E1F7CE0107960E943117882338
:1032000089F016E08091A80190917701891349C057
:1032100067960FB6F894DEBF0FBECDBFDF91CF919A
:103220001F91089586E0FE013796DE011196019008
:103230000D928A95E1F78A859B85892B11F3888504
:103240009F8189238F3FE9F22091770130E0C90106
:103250000196877099274091A8014817190671F4C3
:103260000E94480E109277011092A80186E0E1E7D3
:10327000F1E0DF011D928A95E9F7C3CF96E0929FB6
:10328000D001939FB00D1124A858BE4FFE01319676
:1032900001900D929A95E1F7809377010E949B0728
:1032A000B0CF819FC001112488589E4F0E943117D2
:1032B000882309F4ADCF8091A80190E00196877032
:1032C00099278093A8019ECF82E00E944C087DCF71
:1032D0001F920F920FB60F9211242F933F934F938B
:1032E0005F936F937F938F939F93AF93BF93CF938E
:1032F000DF93EF93FF93D091E900DF708091EC00B2
:10330000C82FC17080FDC0E81092E9008091F000E4
:10331000877F8093F00078940E945D0E1092E90000
:103320008091F00088608093F000CD2BCF70C09327
:10333000E900FF91EF91DF91CF91BF91AF919F9104
:103340008F917F916F915F914F913F912F910F904E
:103350000FBE0F901F9018951F920F920FB60F92ED
:1033600011242F933F934F935F936F937F938F938A
:103370009F93AF93BF93EF93FF938091E10082FF00
:1033800009C08091E20082FF05C08091E1008B7F3F
:103390008093E1008091DA0080FF24C08091D80002
:1033A00080FF20C08091DA008E7F8093DA008091C8
:1033B000D90080FF9FC080E189BD82E189BD09B449
:1033C00000FEFDCF81E080934202809114028111C2
:1033D00009C00E9464030E9457048091E200846047
:1033E0008093E2008091E10080FF17C08091E200AD
:1033F00080FF13C08091E2008E7F8093E200809175
:10340000E20080618093E2008091D8008062809326
:10341000D80019BC85E0809342028091E10084FFCE
:103420002DC08091E20084FF29C080E189BD82E146
:1034300089BD89B5982F917080FFFBCF8091D8000E
:103440008F7D8093D8008091E1008F7E8093E10092
:103450008091E2008F7E8093E2008091E2008160A3
:103460008093E20080913902882309F449C084E006
:10347000809342020E94480E0E9442098091E1001E
:1034800083FF27C08091E20083FF23C08091E10089
:10349000877F8093E10082E080934202109239029C
:1034A0008091E1008E7F8093E1008091E2008E7F29
:1034B0008093E2008091E20080618093E20042E02C
:1034C00060E080E00E9425048091F0008860809395
:1034D000F000FF91EF91BF91AF919F918F917F91FC
:1034E0006F915F914F913F912F910F900FBE0F9071
:1034F0001F90189519BC109242021092140272CFBC
:103500008091E30087FD93E090934202B3CFCDB763
:10351000DEB7AA970FB6F894DEBF0FBECDBF84B753
:10352000877F84BF0FB6F894A8958091600088616A
:1035300080936000109260000FBE80E890E00FB6AC
:10354000F89480936100909361000FBE85B7806806
:1035500085BF85B7806885BF0E9464030E945704B9
:103560008091E20084608093E2007894809142022E
:103570008823A1F01091E9001F709091EC00892F31
:10358000817090FD80E8182B1092E9008091E8008E
:1035900083FD0E945D0E1F701093E90082E084BDE0
:1035A00093E095BD9AEF97BD80936E000E949109BC
:1035B0002FEF46E781E0215040408040E1F700C016
:1035C00000000E9491098091060280FF0BC080E0FC
:1035D0000E94C60D6FEF7FEF90E080E00E94271FF2
:1035E0000E948D0A90E080E00E94031F8C3E9E4F57
:1035F00011F00E94DE0D1092CC001092CD0088E1F7
:103600008093C90086E08093CA0082E290E00E9425
:10361000FB1E813209F04FC383E290E00E94FB1E43
:10362000813109F048C384E290E00E94FB1E85329C
:1036300009F041C390E080E00E94031F8C3E9E4F42
:1036400011F00E94DE0D82E090E00E94FB1E80934C
:10365000FB010E94280B9093EA018093E90183E02B
:1036600090E00E94FB1E682F70E090E080E00E94D6
:10367000890880E091E09093EC018093EB01EE24C7
:10368000EA94FF24F3945AE5252E60E1762E70EA41
:10369000372EE9E04E2EF2E15F2EA8E18A2E912C22
:1036A000B0E46B2E80914202853009F43FC10E9444
:1036B0009109A6E0B2E0ECEFF1E010E000E0602F4D
:1036C0008D919D91219131912817390709F46CC191
:1036D0002827392770E0CC24C394D12CA9014C2190
:1036E0005D21452B09F45AC179A36AA39C012C21C1
:1036F0003D2191E0232B09F490E09BA30E94550605
:103700008160782F9DA38CA349A15AA16BA18DA1A3
:103710000E94BB18000F111FF801E450FE4F80817A
:103720009181C826D926D182C08286E0E4EFF1E0FB
:10373000DE01119601900D928A95E1F7D090F60185
:10374000C090F7011091F8010091F9011092F60173
:103750001092F7011092F8011092F9018D2D8C2929
:1037600009F448C08091F2019091F3010E9446064D
:103770009C019091F101992309F4B8C223333105DA
:10378000C8F19F3F19F09F5F9093F101DD2059F040
:103790000E94BE059FEF1D140CF491E0899F802DBF
:1037A00011248093F601CC2059F00E94BE059FEFB2
:1037B0001C140CF491E0899F802D11248093F70153
:1037C0003091F6013323B1F02091F701222391F0DB
:1037D00045EB3403C0011124992309F4FBC09093F5
:1037E000F60145EB240390011124332309F4F5C0BD
:1037F0003093F701812F802B09F448C08091EF01AD
:103800009091F0010E9446069C019091EE0199234F
:1038100009F467C225363105C8F19F3F19F09F5F53
:103820009093EE01112359F00E949C059FEF111611
:103830000CF491E0899F802D11248093F8010023DE
:1038400059F00E949C059FEF10160CF491E0899F9F
:10385000802D11248093F9013091F8013323B1F0C8
:103860002091F901222391F045EB3403C00111248A
:10387000992309F4B5C09093F80145EB2403900116
:103880001124332309F4AFC03093F9018091F6017C
:103890009091F701892B9091F801892B9091F90172
:1038A000892B11F00E94610686E0FE013196A4EF9B
:1038B000B1E001900D928A95E1F70E944209909142
:1038C000FA01891721F00E9442098093FA01809140
:1038D0004202843009F0E6CE83E08093E9008091D3
:1038E000E80082FFDFCE8091E80090E085FF0CC009
:1038F0000E94830330E2C32ED12C8E010F5F1F4F35
:10390000882309F47DC091E08091E8008B77809353
:10391000E800992309F4C6CEE981E150E33108F0CB
:10392000DBC0F0E0ED59F04E0C94DA1E80914202BB
:10393000843009F11092ED010FB6F894A8958092A9
:1039400060000FBE6092600083B7817F846083BF98
:1039500083B7816083BF7894889583B78E7F83BF58
:103960000FB6F894A89580916000886180936000FC
:10397000109260000FBE80913802882309F492CE25
:103980000E949109E6E0F2E081919191892B09F082
:103990007EC122E0E031F207B9F784CE7F5FCC0C24
:1039A000DD1C703109F09ACE0F5F1F4F05301105F5
:1039B00009F085CEEEA2EFA218A60E9455068160FE
:1039C000782F9AA789A74EA15FA168A58AA50E9412
:1039D000BB18ABCEF092F60104CFF092F7010ACFFC
:1039E000F092F8014ACFF092F90150CF8091F100A6
:1039F000F80181938F01F1E0CF1AD10809F483CF48
:103A00008091E80085FDF2CF8091E8008B7780936C
:103A1000E8000E948303882399F375CF1A824B82B2
:103A2000CE0101960E94DE033DCE8A81823009F4E8
:103A30004FC18330A9F0813009F04EC02FB7F89400
:103A40006091100270911102809112029091130204
:103A50002FBF0E94E01E6B837C838D839E83E0CF0B
:103A600080910602909107029827892798279C83C6
:103A70008B838091080290910902982789279827C3
:103A80009E838D8380910A0290910B02982789274B
:103A9000982798878F8380910C0290910D02982728
:103AA000892798279A87898780910E0290910F0223
:103AB0009827892798279C878B87B2CF8A81823065
:103AC00059F46B817C818D819E810E94E01E85E28C
:103AD00090E00E94091FA4CFE982A2CF4C816B81A4
:103AE0008A810E94360B9827892798279E838D8389
:103AF00097CF0D811E811027012710278A81CB8047
:103B000020E2C29E60011124839DC00CD11C1124AF
:103B10008C8190E0880F991FC80ED91E612FC601B5
:103B200086960E94091F602FC6018796D2CF0E94F9
:103B3000630D76CF7A8274CFFA822B8271CF0A819D
:103B40001B81102701271027CE0101966C01AC8044
:103B5000FC01EA0DF11D5F01C8018A559D4FAC14AF
:103B6000BD0409F45DCF0A35F1E01F0750F40E944F
:103B7000FB1EF60184830F5F1F4FFFEFCF1ADF0A92
:103B8000EBCFF6011482F7CF0A811B8110270127A2
:103B90001027CE0101965C01CC80C00ED12ED11C25
:103BA000C8018A559D4FC016D10609F439CF0A3590
:103BB000E1E01E0720F4F50164810E94091FFFEF78
:103BC000AF1ABF0A0F5F1F4FEBCF0E94B60D28CF71
:103BD00024E02A8325CF0A811B8110270127102783
:103BE000CE0101966C01AC80FC01EA0DF11D5F0174
:103BF000C8018696CA14DB0409F412CF0038F2E03B
:103C00001F0750F40E94FB1EF60184830F5F1F4FB5
:103C1000FFEFCF1ADF0AECCFF6011482F7CF0A814B
:103C20001B81102701271027CE0101965C01CC8053
:103C3000C00ED12ED11CC80186960C151D0509F4A5
:103C4000EFCE0038E2E01E0720F4F50164810E9407
:103C5000091FFFEFAF1ABF0A0F5F1F4FECCF80E0C5
:103C60000E94C60D6FEF7FEF90E080E00E94271F5B
:103C7000D7CECE0101960E94DE032FEF41EE84E005
:103C8000215040408040E1F700C00000A9CC79BC41
:103C900059BC09B400FEFDCF8091D8008F7D809380
:103CA000D8008091E00082608093E0008091E00085
:103CB00081FDFCCFF7CC60E085E290E00E94091F17
:103CC0000E94630D0E94B60D81E00E94C60DB2CC29
:103CD00085E290E00E94FB1E1B821C821D828E8367
:103CE0009FCE2D32314008F09ACDD0CD2D323140CB
:103CF00008F049CD7FCD78941F921FB61F921124F2
:103D00008F939F93AF93BF93809110029091110274
:103D1000A0911202B09113020196A11DB11D8093D2
:103D2000100290931102A0931202B0931302BF915C
:103D3000AF919F918F911F901FBE1F9018951F925A
:103D40001FB61F9211248F939F93AF93BF938091BF
:103D5000ED01811113C08091100290911102A09188
:103D60001202B09113024196A11DB11D8093100261
:103D700090931102A0931202B0931302BF91AF91DE
:103D80009F918F911F901FBE1F90189597FB072E34
:103D900016F4009407D077FD09D00E94E71E07FCB7
:103DA00005D03EF4909581959F4F0895709561954B
:103DB0007F4F0895EE0FFF1F0590F491E02D0994B9
:103DC0006927962769277827872778270895AA1BC8
:103DD000BB1B51E107C0AA1FBB1FA617B70710F0F6
:103DE000A61BB70B881F991F5A95A9F78095909528
:103DF000BC01CD010895F999FECF92BD81BDF89A1D
:103E0000992780B50895A8E1B0E042E050E00C9415
:103E10002F1F262FF999FECF92BD81BDF89A0197E9
:103E200000B4021639F01FBA20BD0FB6F894FA9A02
:103E3000F99A0FBE08950396272F0E940A1F0E9429
:103E4000091F252F0E940A1F242F0C940A1F019678
:103E5000272F0E940A1F0C94091FDC01CB01FC01D3
:103E6000F999FECF06C0F2BDE1BDF89A319600B4D3
:103E70000D9241505040B8F70895F894FFCF4E0D81
:103E80004E0D570D570D590D570D570D570D4E0D22
:103E90004E0D5E0D570D570D5E0D420F6A0FBD0F93
:103EA0006A0FBD0F9D0FD50FBD0FD210DF10DF13AE
:103EB000DF134E144E14A914C31414141414CE1486
:103EC000A415B315B3150E1D151D5E1D6E1D791DB0
:103ED000971D6C1D6C1D6C1D2F1E391E9A1D9C1D7F
:0C3EE0009F1DC41DE51DE81DEB1D0F1EFD
:103EEC0016054D0A2C0A280A240A01818283E20055
:103EFC00E900EA00B500B600B700CD008301CC00A4
:103F0C008A01920194012102230224022502260235
:103F1C0027022A02B300B4006F0070004022BC8A52
:0C3F2C00016801AC009C05B505D505003E
:00000001FF
